:100000000C9444010C9475010C9475010C947501C9
:100010000C9475010C9475010C9475010C94750188
:100020000C9475010C945F080C9473080C94690887
:100030000C9475010C9475010C9475010C94750168
:100040000C9475010C9475010C9475010C94750158
:100050000C9475010C9475010C9475010C94C506F3
:100060000C9475010C9435080C940B080C947501D4
:100070000C9475010C9475010C9475010C94750128
:100080000C9475010C9475010C9475010C94750118
:100090000C94E1070C94B7070C9475010C9475014E
:1000A0000C9475010C9475010C9475010C947501F8
:1000B0000C9475010C9475010C9475010C947501E8
:1000C0000C9475010C9475010C9475010C948D07BA
:1000D0000C9463070C9475010C9439070C940F076A
:1000E0000C9475010C9463020C94760E0C946B02C4
:1000F0000C9467020C9483020C94DA050C9455035B
:100100000C94F8030C9475020C94DE020C943002EB
:100110000C9471020C9435020C947D080C944904E3
:100120000C94AB030C944C020C94FD050C9444020B
:100130000C9447030C9424030C9459020C945D0214
:100140000C94C7050C9450020C947F020C9433035A
:100150000C9453020C9400060C9448020C947902FF
:100160000C945E0400000A0B02090C0D0E08070334
:10017000040100000000000000000000000000007A
:10018000000000000000000000000000000000006F
:10019000121110000000000000000000000000002C
:1001A000000000000000000000000000200023000C
:1001B000260029002C002F0032000001000003015E
:1001C0000601090100002100240027002A002D005B
:1001D0003000330001010000040107010A010000A2
:1001E0002200250028002B002E00310034000201DF
:1001F0000000050108010B010505050507050808B4
:100200000808020202020A0A0808040404040101A0
:1002100001010101010103030303030303030407B5
:1002200007070C0C0C0C0C0C0C0C0202020206064C
:100230000606060606060B0B0B0B0B0B0B0B01023F
:1002400010202008081020401020408002010201E8
:1002500008040201010204081020408080402010A0
:1002600008040201800402018040201008040201F9
:100270000804020101020408102040800102040861
:10028000102040807D08760E11241FBECFEFD1E2F2
:10029000DEBFCDBF00E00CBF12E0A0E0B2E0E0EEB8
:1002A000F1E200E00BBF02C007900D92AA33B10744
:1002B000D9F725E0AAE3B2E001C01D92A33BB20743
:1002C000E1F711E0C3E4D1E000E006C021970109A5
:1002D000802FFE010E94F80EC234D10780E008078B
:1002E000A9F70E94140A0C94DE100C940000CF921F
:1002F000DF92EF92FF92CF93DF93EC016A017B01D3
:10030000E889F98982E08083C11481EED806E1048E
:10031000F104A1F060E079E08DE390E0A70196019F
:100320000E94D60E21503109410951095695479531
:1003300037952795211580E1380798F0E889F989E4
:10034000108260E874E88EE190E0A70196010E94B7
:10035000D60E2150310941095109569547953795D7
:100360002795EC85FD853083EE85FF852083188EEB
:10037000EC89FD8986E08083EA89FB898081806140
:100380008083EA89FB89808188608083EA89FB8990
:10039000808180688083EA89FB8980818F7D80836A
:1003A000DF91CF91FF90EF90DF90CF900895209153
:1003B000850230918602409187025091880224275D
:1003C00035274091890250918A022427352730939E
:1003D000200320931F03680F791FFC014191CF0177
:1003E00020911F0330912003242730932003209372
:1003F0001F036E177F0789F7C9018E7F992708951C
:10040000282F30E0F901EC59FE4F9491F901E25C9C
:10041000FD4F449128503E4FF9012491222309F4C5
:1004200032C0992311F191509231F8F4E92FF0E0A4
:100430008827E25EFD4F8F4F0C94F80E4C0250025D
:100440003002440248023502530259025D0263023F
:1004500067026B0271027502350279027F02830224
:10046000809180008F7780938000E22FF0E0EE0F84
:10047000FF1FE252FE4FA591B4918FB7F894EC9113
:100480004E2B4C938FBF0895809180008F7DEBCFD2
:1004900080918000877FE7CF84B58F7784BDE5CFDB
:1004A00084B58F7DFBCF8091B0008F778093B000B3
:1004B000DCCF8091B0008F7DF9CF809190008F7755
:1004C00080939000D2CF809190008F7DF9CF809162
:1004D0009000877FF5CF8091A0008F778093A00058
:1004E000C4CF8091A0008F7DF9CF8091A000877F3D
:1004F000F5CF809120018F7780932001B6CF809136
:1005000020018F7DF9CF80912001877FF5CF3FB704
:10051000F8948091810290918202A0918302B0911F
:10052000840226B5A89B05C02F3F19F00196A11D96
:10053000B11D3FBFBA2FA92F982F8827BC01CD012D
:10054000620F711D811D911D42E0660F771F881F8C
:10055000991F4A95D1F708958F929F92AF92BF92BB
:10056000CF92DF92EF92FF924B015C010E948702D3
:100570006B017C010E9487026C197D098E099F091D
:10058000683E734081059105A8F321E0821A910825
:10059000A108B10888EEC80E83E0D81EE11CF11C4A
:1005A00081149104A104B10429F7FF90EF90DF902A
:1005B000CF90BF90AF909F908F900895AF92BF92D1
:1005C000CF92DF92EF92FF920F931F93CF93DF931F
:1005D0006C017B018B01040F151FEB015E01AE184E
:1005E000BF08C017D10759F06991D601ED91FC9170
:1005F0000190F081E02DC6011995892B79F7C5018D
:10060000DF91CF911F910F91FF90EF90DF90CF90EE
:10061000BF90AF900895FC01A089B1898C91A68903
:10062000B78982FD0FC09C91818D8F5F8F73228D62
:10063000821749F0A18DAE0FBF2FB11D5D969C931F
:10064000818F08958C910895FC01538D448D252F41
:1006500030E0842F90E0821B930B541710F0CF965C
:10066000089501970895FC01918D828D981761F08E
:10067000A28DAE0FBF2FB11D5D968C91928D9F5FA5
:100680009F73928F90E008958FEF9FEF0895FC0184
:10069000918D828D981731F0828DE80FF11D858D37
:1006A00090E008958FEF9FEF0895FC01918D228DCA
:1006B000892F90E0805C9F4F821B91098F7399274F
:1006C000089583E293E00E94550321E0892B09F409
:1006D00020E0822F089580EC93E00E94550321E0F2
:1006E000892B09F420E0822F08958DE594E00E9483
:1006F000550321E0892B09F420E0822F08958AEF29
:1007000094E00E94550321E0892B09F420E0822F18
:100710000895FC01A48DA80FB92FB11DA35ABF4F96
:100720002C91848D90E001968F739927848FA689F0
:10073000B7892C93A089B1898C91837080648C9344
:10074000938D848D981306C00288F389E02D8081F3
:100750008F7D80830895EF92FF920F931F93CF9325
:10076000DF93EC0181E0888F9B8D8C8D98131AC0EC
:10077000E889F989808185FF15C09FB7F894EE89D3
:10078000FF896083E889F989808183708064808330
:100790009FBF81E090E0DF91CF911F910F91FF907B
:1007A000EF900895F62E0B8D10E00F5F1F4F0F7323
:1007B0001127E02E8C8D8E110CC00FB607FCFACFDE
:1007C000E889F989808185FFF5CFCE010E948903F0
:1007D000F1CFEB8DEC0FFD2FF11DE35AFF4FF082AF
:1007E0009FB7F8940B8FEA89FB8980818062CFCF15
:1007F000CF93DF93EC01888D8823B9F0AA89BB8958
:10080000E889F9898C9185FD03C0808186FD0DC042
:100810000FB607FCF7CF8C9185FFF2CF808185FF63
:10082000EDCFCE010E948903E9CFDF91CF910895EA
:1008300080E090E0892B29F00E947F0381110E94C3
:10084000000080E090E0892B29F00E94750381115F
:100850000E94000080E090E0892B29F00E946B0349
:1008600081110E94000080E090E0892B29F00E9415
:10087000610381110C9400000895DC015196ED9103
:10088000FC915297908150968C918095892380831A
:100890000895892B81F490917B0280917A029817B8
:1008A00051F0E0917B02F0E0E65CFD4F8081082E84
:1008B000000C990B08958FEF9FEF0895892B39F461
:1008C0008FB7F89410927A0210927B028FBF08952E
:1008D000EF92FF920F931F93CF93DF93EC018B0165
:1008E00080911B0390911C038230910509F43DC057
:1008F000B4F4019721F180911B0390911C03823085
:10090000910509F47DC00CF05EC0019709F473C035
:10091000DF91CF911F910F91FF90EF900895833059
:100920009105D1F1049739F787E995E00E945E04BB
:1009300061E070E080E090E00E94AC02DCCF8DE5E9
:1009400094E00E94F8032BE1E22E23E0F22E8DE5E5
:1009500094E00E945503892B71F28DE594E00E948A
:100960003303C7010197F1F7F2CF80EC93E00E94C7
:10097000F8039BE1E92E93E0F92E80EC93E00E94CE
:100980005503892B09F4B7CF80EC93E00E94330321
:10099000C7010197F1F7F1CF83E293E00E94F803DA
:1009A0008BE1E82E83E0F82E83E293E00E9455036A
:1009B000892B09F4A0CF83E293E00E943303C7019F
:1009C0000197F1F7F1CF83309105F9F0049709F021
:1009D0009FCFA801BE0187E995E00E94DE0261E099
:1009E00070E080E090E0DF91CF911F910F91FF9038
:1009F000EF900C94AC02A801BE018DE594E0EDCF20
:100A0000A801BE0180EC93E0E8CFA801BE0183E21B
:100A100093E0E3CFCF92DF92EF92FF920F931F9379
:100A2000CF93DF93C5E8D2E02AE030E03983288312
:100A30009B838A8383E090E09D838C832BECC22E82
:100A400022E0D22E24E3F60120833CECE32E32E0B8
:100A5000F32E21E0F70120830DEC12E0F801108263
:100A60009F838E8363E070E0C6010E94D70199875F
:100A700088879C01209530952E7F33273B872A87D6
:100A80009FEF9C879D87688179816E879A819F8778
:100A90009C81988B898B2A8BF60180818B8BF70147
:100AA00080818C8BF80180818D8B81E992E0DF91D0
:100AB000CF911F910F91FF90EF90DF90CF900C940A
:100AC0006804AF92BF92CF92DF92EF92FF920F93A2
:100AD0001F93CF93DF93C5E8D2E02BE030E039835A
:100AE00028839B838A8383E090E09D838C838BECB7
:100AF000A82E82E0B82E80E3F50180839CECC92EFD
:100B000092E0D92E82E0F60180832DECE22E22E0E5
:100B1000F22EF70110820EEC12E0F801108284E050
:100B200090E09F838E8364E070E0C5010E94D7014E
:100B3000998788879C01209530952E7F33273B87A6
:100B40002A879FEF9C879D87688179816E879A812C
:100B50009F879C81988B898B2A8BF50180818B8B59
:100B6000F60180818C8BF70180818D8BF80180816B
:100B70008E8B81E992E0DF91CF911F910F91FF90D1
:100B8000EF90DF90CF90BF90AF900C946804892BCA
:100B900071F480917A0220917B0290E0805C9F4FFB
:100BA000821B910960E470E00E94C20E089590E0FB
:100BB00080E00895892BB9F490917B0280917A02AC
:100BC000981789F0E0917B02F0E0E65CFD4F8081B0
:100BD00020917B0230E02F5F3F4F2F73332720930C
:100BE0007B0290E008958FEF9FEF089520E001973A
:100BF0002FEF8F3F9207D9F7089590E080E0089596
:100C0000DF92EF92FF920F931F93CF93DF93EC014C
:100C1000898D9A8D892B71F481E090E09B838A8382
:100C200090E080E0DF91CF911F910F91FF90EF90C6
:100C3000DF900895162FDFB6F8948B8D81FD29C0C3
:100C4000CE010E943D04898D9A8D05960E94F6057D
:100C50008B8D98E0E92EF12C01E081FF28C0812FD7
:100C60008023F1F0CE010E943D04898D9A8D0E946F
:100C7000F605000F81E0E81AF10889F7CE010E941D
:100C80003D04DFBE898D9A8D0E94F60581E090E0DB
:100C9000C9CFE989FA8980819889892B8083D3CF4C
:100CA000E989FA8980819889892B8083DECF812F19
:100CB0008023B1F0E989FA8980819889892B808322
:100CC000898D9A8D0E94F605000F81E0E81AF108DF
:100CD00071F7E989FA8980819889892B8083D1CF3E
:100CE000CE010E943D04ECCFFC0101900020E9F709
:100CF0003197AF01481B590BBC018AEF94E00C946B
:100D0000DE028F929F92AF92BF920F931F93CF9369
:100D1000DF93CDB7DEB7A1970FB6F894DEBF0FBE55
:100D2000CDBF19A2423008F44AE08E010F5D1F4F7B
:100D3000842E912CB12CA12CA50194010E94D60ED9
:100D4000E62FB901CA01EA30F4F4E05DD801EE9370
:100D50008D01232B242B252B79F790E080E0109731
:100D600019F0CD010E947406A1960FB6F894DEBF6B
:100D70000FBECDBFDF91CF911F910F91BF90AF906C
:100D80009F908F900895E95CE1CF1F920F920FB66C
:100D90000F9211242F933F938F939F93AF93BF9301
:100DA00080917D0290917E02A0917F02B09180029D
:100DB00030917C0223E0230F2D3758F50196A11DB9
:100DC000B11D20937C0280937D0290937E02A093BC
:100DD0007F02B09380028091810290918202A09163
:100DE0008302B09184020196A11DB11D80938102FE
:100DF00090938202A0938302B0938402BF91AF913B
:100E00009F918F913F912F910F900FBE0F901F9048
:100E1000189526E8230F0296A11DB11DD2CF1F926F
:100E20000F920FB60F9211240BB60F922F933F9390
:100E30004F935F936F937F938F939F93AF93BF93E2
:100E4000EF93FF9383E293E00E948903FF91EF9178
:100E5000BF91AF919F918F917F916F915F914F91D2
:100E60003F912F910F900BBE0F900FBE0F901F90D0
:100E700018951F920F920FB60F9211240BB60F9276
:100E80002F933F934F935F936F937F938F939F9392
:100E9000AF93BF93EF93FF9383E293E00E940B0322
:100EA000FF91EF91BF91AF919F918F917F916F9142
:100EB0005F914F913F912F910F900BBE0F900FBEFE
:100EC0000F901F9018951F920F920FB60F9211243A
:100ED0000BB60F922F933F934F935F936F937F9334
:100EE0008F939F93AF93BF93EF93FF9380EC93E027
:100EF0000E948903FF91EF91BF91AF919F918F91D4
:100F00007F916F915F914F913F912F910F900BBE09
:100F10000F900FBE0F901F9018951F920F920FB653
:100F20000F9211240BB60F922F933F934F935F9321
:100F30006F937F938F939F93AF93BF93EF93FF93A1
:100F400080EC93E00E940B03FF91EF91BF91AF9172
:100F50009F918F917F916F915F914F913F912F91D1
:100F60000F900BBE0F900FBE0F901F9018951F9201
:100F70000F920FB60F9211240BB60F922F933F933F
:100F80004F935F936F937F938F939F93AF93BF9391
:100F9000EF93FF938DE594E00E948903FF91EF9119
:100FA000BF91AF919F918F917F916F915F914F9181
:100FB0003F912F910F900BBE0F900FBE0F901F907F
:100FC00018951F920F920FB60F9211240BB60F9225
:100FD0002F933F934F935F936F937F938F939F9341
:100FE000AF93BF93EF93FF938DE594E00E940B03C3
:100FF000FF91EF91BF91AF919F918F917F916F91F1
:101000005F914F913F912F910F900BBE0F900FBEAC
:101010000F901F9018951F920F920FB60F921124E8
:101020000BB60F922F933F934F935F936F937F93E2
:101030008F939F93AF93BF93EF93FF938AEF94E0C7
:101040000E948903FF91EF91BF91AF919F918F9182
:101050007F916F915F914F913F912F910F900BBEB8
:101060000F900FBE0F901F9018951F920F920FB602
:101070000F9211240BB60F922F933F934F935F93D0
:101080006F937F938F939F93AF93BF93EF93FF9350
:101090008AEF94E00E940B03FF91EF91BF91AF9113
:1010A0009F918F917F916F915F914F913F912F9180
:1010B0000F900BBE0F900FBE0F901F9018951F92B0
:1010C0000F920FB60F9211240F900FBE0F901F902A
:1010D00018951F920F920FB60F9211240F900FBE0A
:1010E0000F901F9018951F920F920FB60F92112418
:1010F0000F900FBE0F901F9018950F931F93CF93D3
:10110000DF93109226031092250388EE93E0A0E06F
:10111000B0E08093270390932803A0932903B09312
:101120002A0324E032E0309324032093230345E391
:1011300051E05093300340932F0344E351E0509328
:1011400032034093310340E351E050933403409322
:10115000330341E351E0509336034093350342E3B8
:1011600051E0509338034093370346E351E05093E6
:101170003A034093390310923C0310923D031092BE
:101180003E0310923F031092C3031092C203809358
:10119000C4039093C503A093C603B093C7033093D1
:1011A000C1032093C00345ED50E05093CD0340931D
:1011B000CC0344ED50E05093CF034093CE0340ED79
:1011C00050E05093D1034093D00341ED50E0509351
:1011D000D3034093D20342ED50E05093D5034093A4
:1011E000D40346ED50E05093D7034093D6031092BA
:1011F000D9031092DA031092DB031092DC031092F1
:10120000600410925F048093610490936204A09341
:101210006304B093640430935E0420935D044DEC4A
:1012200050E050936A04409369044CEC50E05093B2
:101230006C0440936B0448EC50E050936E04409370
:101240006D0449EC50E05093700440936F044AECF5
:1012500050E050937204409371044EEC50E0509370
:1012600074044093730410927604109277041092E1
:101270007804109279041092FD041092FC0480937B
:10128000FE049093FF04A0930005B09301053093F2
:10129000FB042093FA0425EC30E0309307052093FB
:1012A000060524EC30E0309309052093080520EC76
:1012B00030E030930B0520930A0521EC30E03093A9
:1012C0000D0520930C0522EC30E030930F052093A0
:1012D0000E0526EC30E03093110520931005109296
:1012E0001305109214051092150510921605109210
:1012F0009A051092990580939B0590939C05A09365
:101300009D05B0939E0586E192E0909398058093A9
:1013100097051092AB051092AA051092AD05109298
:10132000AC051092AF051092AE051092B105109267
:10133000B0058091B2058E7F8D7F8093B2050FE35B
:1013400012E0F8012491C9EFD1E0FE0184918823D5
:1013500099F090E0880F991FFC01EC53FE4FA59186
:10136000B491FC01E252FE4F859194918FB7F894AD
:101370009C91292B2C938FBF81E00E940002F801E1
:1013800004910093A705FE01C491EC2FF0E0EE0F4D
:10139000FF1FE252FE4F859194919093A90580938F
:1013A000A8050EE312E0F8012491C8EFD1E0FE0198
:1013B00084918823C9F090E0880F991FFC01EC53B9
:1013C000FE4FA591B491FC01E252FE4F459154911C
:1013D0003FB7F8949C91822F809598239C93FA01B3
:1013E0009081892380833FBF8091B20581FD03C036
:1013F00080E00E9400021092A305F801049100937E
:10140000A405FE01C491EC2FF0E0EE0FFF1FE6559E
:10141000FE4F859194919093A6058093A505DF9149
:10142000CF911F910F910895789484B5826084BD07
:1014300084B5816084BD85B5826085BD85B58160D8
:1014400085BD80916E00816080936E001092810056
:101450008091810082608093810080918100816011
:1014600080938100809180008160809380008091D2
:10147000B10084608093B1008091B000816080935E
:10148000B0008091910082608093910080919100E2
:1014900081608093910080919000816080939000A2
:1014A0008091A10082608093A1008091A100816061
:1014B0008093A1008091A00081608093A000809122
:1014C00021018260809321018091210181608093BC
:1014D00021018091200181608093200180917A0018
:1014E000846080937A0080917A00826080937A0091
:1014F00080917A00816080937A0080917A00806880
:1015000080937A001092C10060ED77E080E090E077
:101510000E94AC0240E052EC61E070E08AEF94E09F
:101520000E94770140E052EC61E070E080EC93E0D3
:101530000E94770182E090E090931C0380931B034C
:1015400084E292E00E9474068AE292E00E947406AD
:1015500087E090E090938602809385025EEFE52E0F
:10156000F12CF0928802E092870289E090E090935B
:101570008A028093890280EF90E090938E0280939C
:101580008D028EE090E09093900280938F02CFEFD7
:10159000C0939102C093920287E0809393028EEFF2
:1015A0008093940289E08093950280EF8093960265
:1015B0008EE08093970267E070E081E992E00E94FC
:1015C000680464EF71E080E090E00E94AC026AE0A1
:1015D00070E080E090E00E94AC0210921E03109236
:1015E0001D0310928C0210928B0264E670E080E082
:1015F00090E00E94AC028EEF90E00E9461056AE0EC
:1016000070E080E090E00E94AC026AE0C62ED12C2F
:10161000D0928602C0928502F0928802E092870200
:1016200003E010E010938A020093890274E3B72E5E
:10163000B092CB02D1E0D093CC02D093CD021093E4
:101640008C0200938B0263E070E08BEC92E00E94CE
:10165000D70190938E0280938D029C012095309546
:101660002E7F33273093900220938F02C0939102F4
:10167000C0939202609185027091860260939302FA
:101680009091870290939402909189029093950291
:1016900080939602209397028091CB0280939802C8
:1016A0008091CC02809399028091CD0280939A021E
:1016B00081E992E00E9468046AE070E080E090E0D6
:1016C0000E94AC02D0928602C0928502F0928802FB
:1016D000E092870210938A0200938902B092CB02B3
:1016E000D093CC0280E68093CD0210938C020093BD
:1016F0008B0263E070E08BEC92E00E94D701909344
:101700008E0280938D029C01209530952E7F332789
:101710003093900220938F02C0939102C093920263
:101720006091850270918602609393029091870286
:1017300090939402909189029093950280939602DF
:10174000209397028091CB02809398028091CC02E3
:10175000809399028091CD0280939A0281E992E070
:101760000E9468046AE070E080E090E00E94AC02B1
:101770006AE070E080E090E00E94AC028EEF90E0C2
:101780000E940A056AE070E080E090E00E94AC02EE
:101790008EEF90E00E94610587E090E00E940A05CC
:1017A00068EE73E080E090E00E94AC02E9E02E2E4B
:1017B000312CCBE9DFE006E010E030928602209287
:1017C000850287E090E0909388028093870284E00E
:1017D00090E090938A02809389029AE39093CB02DF
:1017E00082E08093CC0282E090E090938C02809320
:1017F0008B0262E070E08BEC92E00E94D701909344
:101800008E0280938D029C01209530952E7F332788
:101810003093900220938F029FEF909391029093C8
:10182000920260918502709186026093930290917A
:1018300087029093940290918902909395028093ED
:101840009602209397028091CB0280939802809118
:10185000CC028093990281E992E00E94680461E0E1
:1018600070E080E090E00E94AC0280911B039091B8
:101870001C03F12CE12C8230910509F41CC10CF001
:101880008BC0F12CE12C019709F4D4C08091930214
:1018900090E090938602809385028091940290E07C
:1018A00090938802809387028091950290E09093B4
:1018B0008A0280938902809198028093CB02809162
:1018C00099028093CC0280919A028093CD028091FC
:1018D0009B028093CE0280919C028093CF028091E4
:1018E0009D028093D00210938C0200938B0266E0DD
:1018F00070E08BEC92E00E94D70190938E0280936F
:101900008D029C01209530952E7F332730939002D5
:1019100020938F02409196024817190609F04FC193
:10192000809197028217130609F049C160919B02CA
:10193000677080919A02762F682F77FF02C06F5FE1
:101940007F4F759567957250072E000C880B990B89
:101950000E94B70F26E636E646EA5EE30E946C1068
:101960006B017C014B015C01AC019B010E94D91011
:10197000882309F427C18DE292E00E9474068AE26E
:1019800092E00E9474066AE070E080E090E00E94BD
:10199000AC020E94180411CF8330910509F4CCC029
:1019A000049709F073CFF12CE12C87E995E00E94B0
:1019B000C7050D975CF495E0E916F1043CF48FEF50
:1019C000E81AF80ACE010197F1F7EFCFF12CE12CDC
:1019D000D12CC12C87E995E00E94C705181619067D
:1019E00024F587E995E00E94DA05B82E87E995E0AD
:1019F0000E9449049FEFB91202C08F3F99F081E025
:101A0000E816F10439F79DE0C916D1041CF7F60178
:101A1000EB57FD4FB4868FEFC81AD80AEE24E39433
:101A2000F12CD8CFD12CC12CF2CF87E995E00E94C0
:101A30005E042CCF8DE594E00E9455030D975CF475
:101A400095E0E916F1043CF48FEFE81AF80ACE01AC
:101A50000197F1F7EFCFF12CE12CD12CC12C8DE5C2
:101A600094E00E945503181619060CF00FCF8DE56F
:101A700094E00E943303B82E8DE594E00E94470362
:101A80009FEFB91202C08F3F99F081E0E816F10490
:101A900031F79DE0C916D10414F7F601EB57FD4F5D
:101AA000B4868FEFC81AD80AEE24E394F12CD7CF6E
:101AB000D12CC12CF2CF80EC93E00E9455030D97FE
:101AC0005CF495E0E916F1043CF48FEFE81AF80AAB
:101AD000CE010197F1F7EFCFF12CE12CD12CC12CE5
:101AE00080EC93E00E945503181619060CF0CECE38
:101AF00080EC93E00E943303B82E80EC93E00E94C8
:101B000047039FEFB91202C08F3F99F081E0E816BA
:101B1000F10431F79DE0C916D10414F7F601EB5733
:101B2000FD4FB4868FEFC81AD80AEE24E394F12C47
:101B3000D7CFD12CC12CF2CFF12CE12C83E293E052
:101B40000E9455030D975CF495E0E916F1043CF40E
:101B50008FEFE81AF80ACE010197F1F7EFCFF12CD9
:101B6000E12CD12CC12C83E293E00E94550318167E
:101B700019060CF08BCE83E293E00E943303B82E5B
:101B800083E293E00E9447039FEFB91202C08F3FA8
:101B900099F081E0E816F10431F79DE0C916D1040F
:101BA00014F7F601EB57FD4FB4868FEFC81AD80A29
:101BB000EE24E394F12CD7CFD12CC12CF2CF6FEFD0
:101BC0007FEFBBCE26013701E89477F82FEF3FEF88
:101BD0004FE75FE7C301B2010E94D91081110DC028
:101BE0002FEF3FEF4FE75FE7C301B2010E94810F84
:101BF00018161CF481E392E0C0CE2FEF3FEF4FE7C1
:101C00005FE4C701B6010E94671018161CF485E353
:101C100092E0B3CE2FEF3FEF4FE75FECC701B60185
:101C20000E94810F87FDF3CF20E030E0A901C701BA
:101C3000B6010E94810F87FF0BC06DE28AEF94E02E
:101C40000E94AB0346015701B7FAB094B7F8B094BD
:101C50002AE037ED43EA5BE3C501B4010E94150FAA
:101C60004B015C010E94860F6B017C010E94B50F45
:101C70009B01AC01C501B4010E94140F4B015C0132
:101C80004AE0C701B6010E9481066EE28AEF94E045
:101C90000E94AB0320E030E040E251E4C501B40112
:101CA0000E946C104B015C010E94860F6B01F12CAD
:101CB000E12C4AE0C701B6010E948106C701B601C6
:101CC0000E94B50F9B01AC01C501B4010E94140F25
:101CD00020E030E040E251E40E946C100E94860F48
:101CE00090E080E04AE00E94810649CE86E192E0E1
:101CF00090939805809397052091A30546EF420F96
:101D0000443058F08EEC820F843038F082EC820F31
:101D1000EDE6F0E0883018F00895EBE6F0E0308171
:101D2000822F8650990B443080F087EF2233A9F040
:101D30008BEF233391F08DEF243379F082EC820F17
:101D40008830D0F4822F8E53990BBC0181E090E053
:101D500001C0880F6A95EAF780958323443070F0BC
:101D60009EEC920F943050F02E53F0E0E0E02830DB
:101D700038F4EDE6F0E004C08EEFEFCFEBE6F0E0F4
:101D80008083CACF97FB072E16F4009407D077FD07
:101D900009D00E94000F07FC05D03EF49095819574
:101DA0009F4F0895709561957F4F0895A1E21A2E77
:101DB000AA1BBB1BFD010DC0AA1FBB1FEE1FFF1FEF
:101DC000A217B307E407F50720F0A21BB30BE40B3F
:101DD000F50B661F771F881F991F1A9469F7609586
:101DE0007095809590959B01AC01BD01CF01089540
:101DF000EE0FFF1F881F8BBF0790F691E02D1994FF
:101E0000AA1BBB1B51E107C0AA1FBB1FA617B70720
:101E100010F0A61BB70B881F991F5A95A9F780953C
:101E20009095BC01CD0108955058BB27AA270E9468
:101E30002C0F0C942D100E941F1038F00E942610B9
:101E400020F039F49F3F19F426F40C941C100EF482
:101E5000E095E7FB0C941610E92F0E943E1058F312
:101E6000BA17620773078407950720F079F4A6F57F
:101E70000C9460100EF4E0950B2EBA2FA02D0B01E0
:101E8000B90190010C01CA01A0011124FF27591BBF
:101E900099F0593F50F4503E68F11A16F040A22FC5
:101EA000232F342F4427585FF3CF46953795279536
:101EB000A795F0405395C9F77EF41F16BA0B620B35
:101EC000730B840BBAF09150A1F0FF0FBB1F661F7C
:101ED000771F881FC2F70EC0BA0F621F731F841FBF
:101EE00048F4879577956795B795F7959E3F08F0E5
:101EF000B0CF9395880F08F09927EE0F97958795A7
:101F000008950E94F20F08F481E008950E9446109F
:101F100088F09F5798F0B92F9927B751B0F0E1F0AA
:101F2000660F771F881F991F1AF0BA95C9F714C05A
:101F3000B13091F00E946010B1E008950C946010EF
:101F4000672F782F8827B85F39F0B93FCCF3869593
:101F500077956795B395D9F73EF4909580957095F0
:101F600061957F4F8F4F9F4F0895E89409C097FB6D
:101F70003EF490958095709561957F4F8F4F9F4F60
:101F80009923A9F0F92F96E9BB279395F6958795A4
:101F900077956795B795F111F8CFFAF4BB0F11F467
:101FA00060FF1BC06F5F7F4F8F4F9F4F16C088230E
:101FB00011F096E911C0772321F09EE8872F762F44
:101FC00005C0662371F096E8862F70E060E02AF085
:101FD0009A95660F771F881FDAF7880F9695879571
:101FE00097F90895990F0008550FAA0BE0E8FEEF46
:101FF00016161706E807F907C0F012161306E407CD
:10200000F50798F0621B730B840B950B39F40A26C5
:1020100061F0232B242B252B21F408950A2609F4A3
:10202000A140A6958FEF811D811D089597F99F67A7
:1020300080E870E060E008959FEF80EC0895002450
:102040000A941616170618060906089500240A941D
:1020500012161306140605060895092E0394000CA3
:1020600011F4882352F0BB0F40F4BF2B11F460FF32
:1020700004C06F5F7F4F8F4F9F4F089557FD90585B
:10208000440F551F59F05F3F71F04795880F97FB3C
:10209000991F61F09F3F79F08795089512161306F6
:1020A0001406551FF2CF4695F1DF08C01616170625
:1020B0001806991FF1CF869571056105089408955A
:1020C000E894BB2766277727CB0197F908950E94EC
:1020D000F20F08F48FEF08950E947F100C942D10DA
:1020E0000E941F1038F00E94261020F0952311F056
:1020F0000C9416100C941C1011240C9461100E9466
:102100003E1070F3959FC1F3950F50E0551F629FED
:10211000F001729FBB27F00DB11D639FAA27F00D40
:10212000B11DAA1F649F6627B00DA11D661F829F67
:102130002227B00DA11D621F739FB00DA11D621F4C
:10214000839FA00D611D221F749F3327A00D611D69
:10215000231F849F600D211D822F762F6A2F11244B
:102160009F5750409AF0F1F088234AF0EE0FFF1F7E
:10217000BB1F661F771F881F91505040A9F79E3FD5
:10218000510580F00C9416100C9461105F3FE4F33D
:10219000983ED4F3869577956795B795F795E7952B
:1021A0009F5FC1F7FE2B880F911D9695879597F934
:1021B00008950E94F20F880B990B089511E0C3E473
:1021C000D1E000E006C0802FFE010E94F80E2196AB
:1021D000011DC434D10780E00807A9F7F894FFCFA8
:1021E00000000000AB03DE022403F80355033303B1
:1021F0004703000000000006DE02FD055E04C7057F
:10220000DA054904426567696E000D0A006E616E69
:0A22100000696E66006F766600003C
:00000001FF
