:100000000C9444010C9475010C9475010C947501C9
:100010000C9475010C9475010C9475010C94750188
:100020000C9475010C94F4080C9408090C94FE08C7
:100030000C9475010C9475010C9475010C94750168
:100040000C9475010C9475010C9475010C94750158
:100050000C9475010C9475010C9475010C945A075D
:100060000C9475010C94CA080C94A0080C947501AA
:100070000C9475010C9475010C9475010C94750128
:100080000C9475010C9475010C9475010C94750118
:100090000C9476080C944C080C9475010C94750122
:1000A0000C9475010C9475010C9475010C947501F8
:1000B0000C9475010C9475010C9475010C947501E8
:1000C0000C9475010C9475010C9475010C94220824
:1000D0000C94F8070C9475010C94CE070C94A407AB
:1000E0000C9475010C9483020C9412100C94300241
:1000F0000C9463020C9444020C9401060C94F803D3
:100100000C944C020C9475020C9467020C947F02C0
:100110000C9455030C9447030C9433030C943A0647
:100120000C945E040C9459020C9437060C9448020B
:100130000C9471020C9414060C9479020C94240310
:100140000C9450020C9449040C9412090C945D0216
:100150000C9453020C94DE020C9435020C946B0246
:100160000C94AB0300000A0B02090C0D0E080703E8
:10017000040100000000000000000000000000007A
:10018000000000000000000000000000000000006F
:10019000121110000000000000000000000000002C
:1001A000000000000000000000000000200023000C
:1001B000260029002C002F0032000001000003015E
:1001C0000601090100002100240027002A002D005B
:1001D0003000330001010000040107010A010000A2
:1001E0002200250028002B002E00310034000201DF
:1001F0000000050108010B010505050507050808B4
:100200000808020202020A0A0808040404040101A0
:1002100001010101010103030303030303030407B5
:1002200007070C0C0C0C0C0C0C0C0202020206064C
:100230000606060606060B0B0B0B0B0B0B0B01023F
:1002400010202008081020401020408002010201E8
:1002500008040201010204081020408080402010A0
:1002600008040201800402018040201008040201F9
:100270000804020101020408102040800102040861
:10028000102040801209121011241FBECFEFD1E2BE
:10029000DEBFCDBF00E00CBF25E0A4E6B2E001C0A8
:1002A0001D92A33EB207E1F712E0A0E0B2E0ECE756
:1002B000F8E200E00BBF02C007900D92A436B10730
:1002C000D9F711E0C3E4D1E000E006C021970109AD
:1002D000802FFE010E94C411C234D10780E00807BC
:1002E000A9F70E94A90A0C942C140C940000CF9238
:1002F000DF92EF92FF92CF93DF93EC016A017B01D3
:10030000E889F98982E08083C11481EED806E1048E
:10031000F104A1F060E079E08DE390E0A70196019F
:100320000E94A21121503109410951095695479562
:1003300037952795211580E1380798F0E889F989E4
:10034000108260E874E88EE190E0A70196010E94B7
:10035000A211215031094109510956954795379508
:100360002795EC85FD853083EE85FF852083188EEB
:10037000EC89FD8986E08083EA89FB898081806140
:100380008083EA89FB89808188608083EA89FB8990
:10039000808180688083EA89FB8980818F7D80836A
:1003A000DF91CF91FF90EF90DF90CF900895209153
:1003B000B1023091B2024091B3025091B4022427AD
:1003C00035274091B5025091B60224273527309346
:1003D0004C0320934B03680F791FFC014191CF011F
:1003E00020914B0330914C03242730934C032093EE
:1003F0004B036E177F0789F7C9018E7F99270895F0
:10040000282F30E0F901EC59FE4F9491F901E25C9C
:10041000FD4F449128503E4FF9012491222309F4C5
:1004200032C0992311F191509231F8F4E92FF0E0A4
:100430008827E25EFD4F8F4F0C94C4114C0250028E
:100440003002440248023502530259025D0263023F
:1004500067026B0271027502350279027F02830224
:10046000809180008F7780938000E22FF0E0EE0F84
:10047000FF1FE252FE4FA591B4918FB7F894EC9113
:100480004E2B4C938FBF0895809180008F7DEBCFD2
:1004900080918000877FE7CF84B58F7784BDE5CFDB
:1004A00084B58F7DFBCF8091B0008F778093B000B3
:1004B000DCCF8091B0008F7DF9CF809190008F7755
:1004C00080939000D2CF809190008F7DF9CF809162
:1004D0009000877FF5CF8091A0008F778093A00058
:1004E000C4CF8091A0008F7DF9CF8091A000877F3D
:1004F000F5CF809120018F7780932001B6CF809136
:1005000020018F7DF9CF80912001877FF5CF3FB704
:10051000F8948091AD029091AE02A091AF02B0919B
:10052000B00226B5A89B05C02F3F19F00196A11D6A
:10053000B11D3FBFBA2FA92F982F8827BC01CD012D
:10054000620F711D811D911D42E0660F771F881F8C
:10055000991F4A95D1F708958F929F92AF92BF92BB
:10056000CF92DF92EF92FF924B015C010E948702D3
:100570006B017C010E9487026C197D098E099F091D
:10058000683E734081059105A8F321E0821A910825
:10059000A108B10888EEC80E83E0D81EE11CF11C4A
:1005A00081149104A104B10429F7FF90EF90DF902A
:1005B000CF90BF90AF909F908F900895AF92BF92D1
:1005C000CF92DF92EF92FF920F931F93CF93DF931F
:1005D0006C017B018B01040F151FEB015E01AE184E
:1005E000BF08C017D10759F06991D601ED91FC9170
:1005F0000190F081E02DC6011995892B79F7C5018D
:10060000DF91CF911F910F91FF90EF90DF90CF90EE
:10061000BF90AF900895FC01A089B1898C91A68903
:10062000B78982FD0FC09C91818D8F5F8F73228D62
:10063000821749F0A18DAE0FBF2FB11D5D969C931F
:10064000818F08958C910895FC01538D448D252F41
:1006500030E0842F90E0821B930B541710F0CF965C
:10066000089501970895FC01918D828D981761F08E
:10067000A28DAE0FBF2FB11D5D968C91928D9F5FA5
:100680009F73928F90E008958FEF9FEF0895FC0184
:10069000918D828D981731F0828DE80FF11D858D37
:1006A00090E008958FEF9FEF0895FC01918D228DCA
:1006B000892F90E0805C9F4F821B91098F7399274F
:1006C00008958FE493E00E94550321E0892B09F4FB
:1006D00020E0822F08958CEE93E00E94550321E0E4
:1006E000892B09F420E0822F089589E894E00E9484
:1006F000550321E0892B09F420E0822F089586E23A
:1007000095E00E94550321E0892B09F420E0822F17
:100710000895FC01A48DA80FB92FB11DA35ABF4F96
:100720002C91848D90E001968F739927848FA689F0
:10073000B7892C93A089B1898C91837080648C9344
:10074000938D848D981306C00288F389E02D8081F3
:100750008F7D80830895EF92FF920F931F93CF9325
:10076000DF93EC0181E0888F9B8D8C8D98131AC0EC
:10077000E889F989808185FF15C09FB7F894EE89D3
:10078000FF896083E889F989808183708064808330
:100790009FBF81E090E0DF91CF911F910F91FF907B
:1007A000EF900895F62E0B8D10E00F5F1F4F0F7323
:1007B0001127E02E8C8D8E110CC00FB607FCFACFDE
:1007C000E889F989808185FFF5CFCE010E948903F0
:1007D000F1CFEB8DEC0FFD2FF11DE35AFF4FF082AF
:1007E0009FB7F8940B8FEA89FB8980818062CFCF15
:1007F000CF93DF93EC01888D8823B9F0AA89BB8958
:10080000E889F9898C9185FD03C0808186FD0DC042
:100810000FB607FCF7CF8C9185FFF2CF808185FF63
:10082000EDCFCE010E948903E9CFDF91CF910895EA
:1008300080E090E0892B29F00E947F0381110E94C3
:10084000000080E090E0892B29F00E94750381115F
:100850000E94000080E090E0892B29F00E946B0349
:1008600081110E94000080E090E0892B29F00E9415
:10087000610381110C9400000895DC015196ED9103
:10088000FC915297908150968C918095892380831A
:100890000895892B81F49091A5028091A402981764
:1008A00051F0E091A502F0E0EC59FD4F8081082E57
:1008B000000C990B08958FEF9FEF0895892B39F461
:1008C0008FB7F8941092A4021092A5028FBF0895DA
:1008D000EF92FF920F931F93CF93DF93EC018B0165
:1008E00080914703909148038230910509F43DC0FF
:1008F000B4F4019721F1809147039091480382302D
:10090000910509F47DC00CF05EC0019709F473C035
:10091000DF91CF911F910F91FF90EF900895833059
:100920009105D1F1049739F783EC95E00E945E04BC
:1009300061E070E080E090E00E94AC02DCCF89E8EA
:1009400094E00E94F8032BE1E22E23E0F22E89E8E6
:1009500094E00E945503892B71F289E894E00E948B
:100960003303C7010197F1F7F2CF8CEE93E00E94B9
:10097000F8039BE1E92E93E0F92E8CEE93E00E94C0
:100980005503892B09F4B7CF8CEE93E00E94330313
:10099000C7010197F1F7F1CF8FE493E00E94F803CC
:1009A0008BE1E82E83E0F82E8FE493E00E9455035C
:1009B000892B09F4A0CF8FE493E00E943303C70191
:1009C0000197F1F7F1CF83309105F9F0049709F021
:1009D0009FCFA801BE0183EC95E00E94DE0261E09A
:1009E00070E080E090E0DF91CF911F910F91FF9038
:1009F000EF900C94AC02A801BE0189E894E0EDCF21
:100A0000A801BE018CEE93E0E8CFA801BE018FE4FF
:100A100093E0E3CFCF92DF92EF92FF920F931F9379
:100A2000CF93DF93C1EBD2E02AE030E03983288313
:100A30009B838A8383E090E09D838C8327EFC22E83
:100A400022E0D22E24E3F601208338EFE32E32E0B9
:100A5000F32E21E0F701208309EF12E020E6F801F0
:100A600020839F838E8363E070E0C6010E94D701DC
:100A7000998788879C01209530952E7F33273B8767
:100A80002A879FEF9C879D87688179816E879A81ED
:100A90009F879C81988B898B2A8BF60180818B8B19
:100AA000F70180818C8BF80180818D8B8DEB92E03A
:100AB000DF91CF911F910F91FF90EF90DF90CF903A
:100AC0000C946804CF93615071096330710508F08C
:100AD00091C0FB01E45FFD4F2081022E000C330B1F
:100AE000FB01E75FFD4FE0810E2E000CFF0B6A5FFC
:100AF0007D4FDB014C91042E000C550B69E570E035
:100B000070934E0360934D036CE070E07093B202FB
:100B10006093B10266E070E07093B6026093B50234
:100B20008093F7029093F802220F331F2E0F3F1F7E
:100B3000440F551F440F551F240F351F220F331F1D
:100B4000220F331F2093F902C9E1C093FA0280E417
:100B500090E09093B4028093B30284E090E090938D
:100B6000B8028093B70264E070E087EF92E00E94E1
:100B7000D7019093BA028093B9029C0120953095D9
:100B80002E7F33273093BC022093BB0249E150E013
:100B90005093B4024093B3029FEF9093BD029093A1
:100BA000BE026091B1027091B2026093BF02C09325
:100BB000C0029091B5029093C1028093C20220932B
:100BC000C30280914D038093C4028091F702809309
:100BD000C5028091F8028093C6028091F902809349
:100BE000C7028091FA028093C8028DEB92E0CF9108
:100BF0000C94680450E040E0F0E0E0E030E020E0F9
:100C00007DCF892B71F48091A4022091A50290E000
:100C1000805C9F4F821B910960E470E00E948E11FE
:100C2000089590E080E00895892BB9F49091A50291
:100C30008091A402981789F0E091A502F0E0EC59A8
:100C4000FD4F80812091A50230E02F5F3F4F2F7331
:100C500033272093A50290E008958FEF9FEF08952A
:100C600020E001972FEF8F3F9207D9F7089590E08A
:100C700080E00895DF92EF92FF920F931F93CF933E
:100C8000DF93EC01898D9A8D892B71F481E090E0DE
:100C90009B838A8390E080E0DF91CF911F910F9139
:100CA000FF90EF90DF900895162FDFB6F8948B8DAC
:100CB00081FD29C0CE010E943D04898D9A8D059643
:100CC0000E9430068B8D98E0E92EF12C01E081FF27
:100CD00028C0812F8023F1F0CE010E943D04898D30
:100CE0009A8D0E943006000F81E0E81AF10889F71A
:100CF000CE010E943D04DFBE898D9A8D0E94300690
:100D000081E090E0C9CFE989FA8980819889892BAF
:100D10008083D3CFE989FA8980819889892B808360
:100D2000DECF812F8023B1F0E989FA89808198890B
:100D3000892B8083898D9A8D0E943006000F81E077
:100D4000E81AF10871F7E989FA8980819889892B75
:100D50008083D1CFCE010E943D04ECCFFC010190F5
:100D60000020E9F73197AF01481B590BBC0186E21F
:100D700095E00C94DE028F929F92AF92BF920F93F8
:100D80001F93CF93DF93CDB7DEB7A1970FB6F8943B
:100D9000DEBF0FBECDBF19A2423008F44AE08E017B
:100DA0000F5D1F4F842E912CB12CA12CA501940115
:100DB0000E94A211E62FB901CA01EA30F4F4E05D05
:100DC000D801EE938D01232B242B252B79F790E06E
:100DD00080E0109719F0CD010E94AE06A1960FB6E3
:100DE000F894DEBF0FBECDBFDF91CF911F910F9161
:100DF000BF90AF909F908F900895E95CE1CFCF9224
:100E0000DF92EF92FF92CF93DF936B017C016DE253
:100E100086E295E00E94AB03EC0166277727CB01C1
:100E20006C197D098E099F094AE00E94BB068C0F50
:100E30009D1FDF91CF91FF90EF90DF90CF900895AD
:100E4000CF93DF93EC0188819981009711F00E9484
:100E5000B212198218821D821C821B821A82DF91B3
:100E6000CF9108950F931F93CF93DF93EC01888167
:100E70009981009759F02A813B812617370730F076
:100E800081E0DF91CF911F910F9108958B016F5FEA
:100E90007F4F0E943B13009759F0998388831B83EF
:100EA0000A832C813D81232B59F7FC011082E8CF66
:100EB00080E0E7CF1F920F920FB60F9211242F936D
:100EC0003F938F939F93AF93BF938091A90290918B
:100ED000AA02A091AB02B091AC023091A80223E02B
:100EE000230F2D3758F50196A11DB11D2093A8029F
:100EF0008093A9029093AA02A093AB02B093AC0294
:100F00008091AD029091AE02A091AF02B091B0027B
:100F10000196A11DB11D8093AD029093AE02A093E6
:100F2000AF02B093B002BF91AF919F918F913F916B
:100F30002F910F900FBE0F901F90189526E8230F4A
:100F40000296A11DB11DD2CF1F920F920FB60F9224
:100F500011240BB60F922F933F934F935F936F9390
:100F60007F938F939F93AF93BF93EF93FF938FE400
:100F700093E00E948903FF91EF91BF91AF919F9100
:100F80008F917F916F915F914F913F912F910F9032
:100F90000BBE0F900FBE0F901F9018951F920F92CF
:100FA0000FB60F9211240BB60F922F933F934F93CE
:100FB0005F936F937F938F939F93AF93BF93EF93C1
:100FC000FF938FE493E00E940B03FF91EF91BF9199
:100FD000AF919F918F917F916F915F914F913F91D1
:100FE0002F910F900BBE0F900FBE0F901F90189572
:100FF0001F920F920FB60F9211240BB60F922F93E0
:101000003F934F935F936F937F938F939F93AF9390
:10101000BF93EF93FF938CEE93E00E948903FF91BF
:10102000EF91BF91AF919F918F917F916F915F9160
:101030004F913F912F910F900BBE0F900FBE0F90CD
:101040001F9018951F920F920FB60F9211240BB696
:101050000F922F933F934F935F936F937F938F9351
:101060009F93AF93BF93EF93FF938CEE93E00E9417
:101070000B03FF91EF91BF91AF919F918F917F9162
:101080006F915F914F913F912F910F900BBE0F90F9
:101090000FBE0F901F9018951F920F920FB60F92D0
:1010A00011240BB60F922F933F934F935F936F933F
:1010B0007F938F939F93AF93BF93EF93FF9389E8B1
:1010C00094E00E948903FF91EF91BF91AF919F91AE
:1010D0008F917F916F915F914F913F912F910F90E1
:1010E0000BBE0F900FBE0F901F9018951F920F927E
:1010F0000FB60F9211240BB60F922F933F934F937D
:101100005F936F937F938F939F93AF93BF93EF936F
:10111000FF9389E894E00E940B03FF91EF91BF9148
:10112000AF919F918F917F916F915F914F913F917F
:101130002F910F900BBE0F900FBE0F901F90189520
:101140001F920F920FB60F9211240BB60F922F938E
:101150003F934F935F936F937F938F939F93AF933F
:10116000BF93EF93FF9386E295E00E948903FF917E
:10117000EF91BF91AF919F918F917F916F915F910F
:101180004F913F912F910F900BBE0F900FBE0F907C
:101190001F9018951F920F920FB60F9211240BB645
:1011A0000F922F933F934F935F936F937F938F9300
:1011B0009F93AF93BF93EF93FF9386E295E00E94D6
:1011C0000B03FF91EF91BF91AF919F918F917F9111
:1011D0006F915F914F913F912F910F900BBE0F90A8
:1011E0000FBE0F901F9018951F920F920FB60F927F
:1011F00011240F900FBE0F901F9018951F920F9201
:101200000FB60F9211240F900FBE0F901F901895DC
:101210001F920F920FB60F9211240F900FBE0F90D6
:101220001F9018950F931F93CF93DF931092520343
:101230001092510388EE93E0A0E0B0E08093530356
:1012400090935403A0935503B093560323E132E0E7
:101250003093500320934F0345E351E050935C03D8
:1012600040935B0344E351E050935E0340935D037E
:1012700040E351E05093600340935F0341E351E04A
:10128000509362034093610342E351E0509364033F
:101290004093630346E351E0509366034093650334
:1012A000109268031092690310926A0310926B0304
:1012B0001092EF031092EE038093F0039093F103EA
:1012C000A093F203B093F3033093ED032093EC0368
:1012D00045ED50E05093F9034093F80344ED50E09E
:1012E0005093FB034093FA0340ED50E05093FD030D
:1012F0004093FC0341ED50E05093FF034093FE0305
:1013000042ED50E0509301044093000446ED50E05C
:1013100050930304409302041092050410920604B3
:10132000109207041092080410928C0410928B04FF
:1013300080938D0490938E04A0938F04B0939004B7
:1013400030938A04209389044DEC50E05093960426
:10135000409395044CEC50E05093980440939704CC
:1013600048EC50E050939A044093990449EC50E0C3
:1013700050939C0440939B044AEC50E050939E048D
:1013800040939D044EEC50E05093A00440939F0482
:101390001092A2041092A3041092A4041092A50427
:1013A000109229051092280580932A0590932B0509
:1013B000A0932C05B0932D05309327052093260587
:1013C00025EC30E0309333052093320524EC30E0F7
:1013D000309335052093340520EC30E03093370509
:1013E0002093360521EC30E0309339052093380501
:1013F00022EC30E030933B0520933A0526EC30E0B8
:1014000030933D0520933C0510923F051092400516
:1014100010924105109242051092C6051092C50522
:101420008093C7059093C805A093C905B093CA05DA
:1014300085E292E09093C4058093C3051092D7058E
:101440001092D6051092D9051092D8051092DB059E
:101450001092DA051092DD051092DC058091DE0510
:101460008E7F8D7F8093DE050FE312E0F8012491DB
:10147000C9EFD1E0FE018491882399F090E0880FB4
:10148000991FFC01EC53FE4FA591B491FC01E2526F
:10149000FE4F859194918FB7F8949C91292B2C93B2
:1014A0008FBF81E00E940002F80104910093D305F0
:1014B000FE01C491EC2FF0E0EE0FFF1FE252FE4F51
:1014C000859194919093D5058093D4050EE312E015
:1014D000F8012491C8EFD1E0FE0184918823C9F07E
:1014E00090E0880F991FFC01EC53FE4FA591B49139
:1014F000FC01E252FE4F459154913FB7F8949C9104
:10150000822F809598239C93FA0190818923808370
:101510003FBF8091DE0581FD03C080E00E94000294
:101520001092CF05F80104910093D005FE01C491FB
:10153000EC2FF0E0EE0FFF1FE655FE4F85919491E2
:101540009093D2058093D105DF91CF911F910F9198
:101550000895CF93DF93CDB7DEB76C970FB6F894AD
:10156000DEBF0FBECDBF789484B5826084BD84B5E4
:10157000816084BD85B5826085BD85B5816085BD8E
:1015800080916E00816080936E0010928100809146
:1015900081008260809381008091810081608093CE
:1015A0008100809180008160809380008091B100F3
:1015B00084608093B1008091B00081608093B0001E
:1015C0008091910082608093910080919100816070
:1015D0008093910080919000816080939000809131
:1015E000A10082608093A1008091A100816080931E
:1015F000A1008091A00081608093A00080912101D2
:10160000826080932101809121018160809321017A
:101610008091200181608093200180917A00846014
:1016200080937A0080917A00826080937A00809122
:101630007A00816080937A0080917A00806880933C
:101640007A001092C10060ED77E080E090E00E94A7
:10165000AC0240E052EC61E070E086E295E00E946E
:10166000770183E392E00E94AE0689E392E00E9454
:10167000AE0640E052EC61E070E08FE493E00E943F
:10168000770183E090E0909348038093470310E054
:1016900000E0E7E0AE2EB12CF9E0CF2ED12CFF24F4
:1016A000FA94A7E09A2EB9E0EB2EB092B202A09283
:1016B000B1021093B4020093B302D092B602C0926A
:1016C000B50298014EE024272E7F33273093BA02CB
:1016D0002093B902C80141EF842790958E7F992706
:1016E0009093BC028093BB02F092BD02F092BE02C6
:1016F0009092BF020093C002E092C1022093C20206
:101700008093C30267E070E08DEB92E00E94680472
:101710000F5F1F4F0E3F110541F664EF71E080E04F
:1017200090E00E94AC0210924A031092490310927A
:10173000B8021092B70264E670E080E090E00E9488
:10174000AC028BE090E09093B2028093B1021093D0
:10175000B4020093B30263E0C62ED12CD092B6023D
:10176000C092B50280E38093F70282E08093F80292
:101770001092F9021092FA0284E090E09093B8027D
:101780008093B70264E070E087EF92E00E94D70197
:101790009093BA028093B9029C01209530952E7FD8
:1017A00033273093BC022093BB02F092BD02F0922B
:1017B000BE026091B1027091B2026093BF0290913B
:1017C000B3029093C0029091B5029093C1028093AE
:1017D000C2022093C3028091F7028093C4028091D9
:1017E000F8028093C5028091F9028093C60280912D
:1017F000FA028093C7028DEB92E00E9468046AE0CF
:1018000070E080E090E00E94AC028AE090E090936B
:10181000B2028093B1021093B4020093B302D0924B
:10182000B602C092B50284E38093F70281E0809310
:10183000F8028093F902D092B802C092B70263E036
:1018400070E087EF92E00E94D7019093BA028093F4
:10185000B9029C01209530952E7F33273093BC022E
:101860002093BB02F092BD02F092BE026091B102E1
:101870007091B2026093BF029091B3029093C00244
:101880009091B5029093C1028093C2022093C3024B
:101890008091F7028093C4028091F8028093C50280
:1018A0008091F9028093C6028DEB92E00E94680459
:1018B0006AE070E080E090E00E94AC028EEF90E081
:1018C0000E940A056AE070E080E090E00E94AC02AD
:1018D00089E190E00E940A057BE9472E7FE0572EC0
:1018E0008E010F5F1F4F8091A6029091A702019673
:1018F0009093A7028093A602C12CD12C76011A8E58
:10190000198E4AE3242E53E0652E712CDC8ECB8E8B
:1019100089E090E09093B2028093B102D092B40239
:10192000C092B30284E090E09093B6028093B50237
:101930002092F70282E08093F80282E090E0909398
:10194000B8028093B70262E070E087EF92E00E94F5
:10195000D7019093BA028093B9029C0120953095EB
:101960002E7F33273093BC022093BB029FEF9093CE
:10197000BD029093BE026091B1027091B202609379
:10198000BF029091B3029093C0029091B5029093E0
:10199000C1028093C2022093C3028091F702809318
:1019A000C4028091F8028093C5028DEB92E00E9400
:1019B000680461E070E080E090E00E94AC028091F9
:1019C000470390914803B12CA12C8230910509F472
:1019D00075C20CF0E4C1B12CA12C019709F42DC201
:1019E0008091BF0290E09093B2028093B102809107
:1019F000C00290E09093B4028093B3028091C10240
:101A000090E09093B6028093B5028091C4028093D7
:101A1000F7028091C5028093F8028091C6028093FC
:101A2000F9028091C7028093FA028091C8028093E4
:101A3000FB028091C9028093FC0286E090E09093C3
:101A4000B8028093B70266E070E087EF92E00E94F0
:101A5000D7019093BA028093B9029C0120953095EA
:101A60002E7F33273093BC022093BB024091C202E9
:101A70004817190609F0A6C28091C30282171306FF
:101A800009F0A0C26091C70263708091C602762FF0
:101A9000682F7250072E000C880B990B0E9495102E
:101AA00026E636E646EA5EE30E94D0100E94E01188
:101AB0004B016A352FEF720709F4D4C06D3A7F4F9E
:101AC00009F4D0C08CE392E00E94AE064AE0C70160
:101AD000B6010E94BB0687E492E00E94AE06B40104
:101AE000990C880B990B97FF70C20E94FF0689E33F
:101AF00092E00E94AE068AE090E09093B20280935A
:101B0000B1028B8D9C8D9093B4028093B30270923E
:101B1000B6026092B50285E38093F702AA24A394EB
:101B2000A092F80282E08093F9027092B80260926B
:101B3000B70263E070E087EF92E00E94D7019093D4
:101B4000BA028093B9029C01209530952E7F3327ED
:101B50003093BC022093BB02BB24BA94B092BD0266
:101B6000B092BE026091B1027091B2026093BF0266
:101B70009091B3029093C0029091B5029093C102EC
:101B80008093C2022093C3028091F7028093C40223
:101B90008091F8028093C5028091F9028093C60279
:101BA0008DEB92E00E9468048B8D9C8D499709F41F
:101BB00054C08AE090E09093B2028093B1028B8D82
:101BC0009C8D9093B4028093B3027092B60260929F
:101BD000B50284E38093F702A092F8021092F90212
:101BE0007092B8026092B70263E070E087EF92E013
:101BF0000E94D7019093BA028093B9029C0120956C
:101C000030952E7F33273093BC022093BB02B092D5
:101C1000BD02B092BE026091B1027091B2026093B7
:101C2000BF029091B3029093C0029091B50290933D
:101C3000C1028093C2022093C3028091F702809375
:101C4000C4028091F8028093C5028091F9028093CA
:101C5000C6028DEB92E00E946804898D9A8D0196F0
:101C60009A8F898F9FEFC91AD90AE90AF90A2DEFCD
:101C7000C216D104E104F10409F048CE1C8A1B8A83
:101C80001E8A1D8A188E1F8A4AE0B801898D9A8D96
:101C90000E945E10F80101900020E9F731977F0162
:101CA000E01AF10AB701CE0143960E943207811172
:101CB00090C1CE0143960E9420071A8219821C828D
:101CC0001B821E821D8266E070E0C8010E943207FE
:101CD000811187C1C8010E942007CB88DC88C1140C
:101CE000D10409F489C1EF88F88CE114F104B1F052
:101CF0008D819E81E80EF91EB701C8010E9432074E
:101D0000882309F479C129813A818D819E81B601A8
:101D1000820F931F0E942514FE82ED82ED80FE80CB
:101D200047E0E40EF11CB701C8010E94320781119F
:101D300067C1C8010E9420074D815E8169817A8157
:101D400086E295E00E94DE0289E392E00E94AE0600
:101D500089819A81009711F00E94B2128B899C8927
:101D6000009711F00E94B2128091A60280FD55C129
:101D70008FE592E00E94AE0689E392E00E94AE06F3
:101D800062E070E08DE392E00E94620568EE73E02D
:101D900080E090E00E94AC020E941804A4CD833041
:101DA000910509F4CCC0049709F01ACEB12CA12CEE
:101DB00083EC95E00E9401060D975CF495E0A9166E
:101DC000B1043CF42FEFA21AB20AC2010197F1F755
:101DD000EFCFB12CA12C912C812C83EC95E00E94AB
:101DE00001061816190624F583EC95E00E941406E6
:101DF000382E83EC95E00E9449044FEF341202C064
:101E00008F3F99F081E0A816B10439F79DE089165B
:101E100091041CF7F401EF54FD4F34862FEF821A22
:101E2000920AAA24A394B12CD8CF912C812CF2CF62
:101E300083EC95E00E945E04D3CD89E894E00E9493
:101E400055030D975CF445E0A416B1043CF48FEF04
:101E5000A81AB80AC2010197F1F7EFCFB12CA12C53
:101E6000912C812C89E894E00E94550318161906DC
:101E70000CF0B6CD89E894E00E943303382E89E84F
:101E800094E00E9447039FEF391202C08F3F99F000
:101E900021E0A216B10431F74DE08416910414F745
:101EA000F401EF54FD4F34868FEF881A980AAA2464
:101EB000A394B12CD7CF912C812CF2CF8CEE93E050
:101EC0000E9455030D975CF495E0A916B1043CF40B
:101ED0002FEFA21AB20AC2010197F1F7EFCFB12C8E
:101EE000A12C912C812C8CEE93E00E9455031816A6
:101EF00019060CF075CD8CEE93E00E943303382E5A
:101F00008CEE93E00E9447034FEF341202C08F3FE4
:101F100099F081E0A816B10431F79DE0891691048B
:101F200014F7F401EF54FD4F34862FEF821A920A12
:101F3000AA24A394B12CD7CF912C812CF2CFB12C11
:101F4000A12C8FE493E00E9455030D975CF445E0CB
:101F5000A416B1043CF48FEFA81AB80AC201019785
:101F6000F1F7EFCFB12CA12C912C812C8FE493E0D1
:101F70000E945503181619060CF032CD8FE493E039
:101F80000E943303382E8FE493E00E9447039FEFB3
:101F9000391202C08F3F99F021E0A216B10431F747
:101FA0004DE08416910414F7F401EF54FD4F34868C
:101FB0008FEF881A980AAA24A394B12CD7CF912C1A
:101FC000812CF2CF6FEF7FEF64CD4AE00E94BB0619
:101FD0008ECDF88EEF8AB8018B899C890E942514DA
:101FE0006CCE86E090E09E838D8360E572E089810F
:101FF0009A810E94251471CEC8010E9420078ECEBE
:1020000029813A818D819E8167E572E0820F931F5D
:102010000E942514FE82ED828FCE62E070E082EC99
:1020200091E0B2CE85E292E09093C4058093C3051F
:102030002091CF0546EF420F443058F08EEC820FCE
:10204000843038F082EC820FEDE6F0E0883018F052
:102050000895EBE6F0E03081822F8650990B4430F2
:1020600080F087EF2233A9F08BEF233391F08DEFCF
:10207000243379F082EC820F8830D0F4822F8E5393
:10208000990BBC0181E090E001C0880F6A95EAF7E6
:1020900080958323443070F09EEC920F943050F082
:1020A0002E53F0E0E0E0283038F4EDE6F0E004C034
:1020B0008EEFEFCFEBE6F0E08083CACFBB274A304C
:1020C00031F4992322F4BDE2909581959F4F0C94B1
:1020D0006A10BB27FB015527AA27880F991FAA1F43
:1020E000A41710F0A41B83955051B9F7A05DAA3333
:1020F00008F0A95DA193009779F7B111B1931192FE
:10210000CB010C948310DC01FC01672F71917723C4
:10211000E1F7329704C07C916D9370836291AE17A2
:10212000BF07C8F30895E89409C097FB3EF4909563
:102130008095709561957F4F8F4F9F4F9923A9F0A0
:10214000F92F96E9BB279395F6958795779567952F
:10215000B795F111F8CFFAF4BB0F11F460FF1BC073
:102160006F5F7F4F8F4F9F4F16C0882311F096E906
:1021700011C0772321F09EE8872F762F05C06623B4
:1021800071F096E8862F70E060E02AF09A95660F6D
:10219000771F881FDAF7880F9695879597F9089526
:1021A0000E94E3100C9454110E94461138F00E94D2
:1021B0004D1120F0952311F00C943D110C94431116
:1021C00011240C9488110E94651170F3959FC1F33E
:1021D000950F50E0551F629FF001729FBB27F00DD5
:1021E000B11D639FAA27F00DB11DAA1F649F66272A
:1021F000B00DA11D661F829F2227B00DA11D621F79
:10220000739FB00DA11D621F839FA00D611D221F32
:10221000749F3327A00D611D231F849F600D211D16
:10222000822F762F6A2F11249F5750409AF0F1F099
:1022300088234AF0EE0FFF1FBB1F661F771F881F02
:1022400091505040A9F79E3F510580F00C943D11EC
:102250000C9488115F3FE4F3983ED4F3869577950C
:102260006795B795F795E7959F5FC1F7FE2B880FA8
:10227000911D9695879597F9089597F99F6780E83E
:1022800070E060E008959FEF80EC089500240A94C8
:102290001616170618060906089500240A94121641
:1022A0001306140605060895092E0394000C11F474
:1022B000882352F0BB0F40F4BF2B11F460FF04C021
:1022C0006F5F7F4F8F4F9F4F089557FD9058440F7A
:1022D000551F59F05F3F71F04795880F97FB991F85
:1022E00061F09F3F79F08795089512161306140642
:1022F000551FF2CF4695F1DF08C0161617061806CF
:10230000991FF1CF86957105610508940895E894A9
:10231000BB2766277727CB0197F9089597FB072EF0
:1023200016F4009407D077FD09D00E94CC1107FC69
:1023300005D03EF4909581959F4F089570956195D5
:102340007F4F0895A1E21A2EAA1BBB1BFD010DC0F1
:10235000AA1FBB1FEE1FFF1FA217B307E407F50755
:1023600020F0A21BB30BE40BF50B661F771F881F31
:10237000991F1A9469F760957095809590959B01C7
:10238000AC01BD01CF010895EE0FFF1F881F8BBF69
:102390000790F691E02D1994AA1BBB1B51E107C0D1
:1023A000AA1FBB1FA617B70710F0A61BB70B881FE5
:1023B000991F5A95A9F780959095BC01CD01089574
:1023C0000E94E7116894B1110C94881108950E943D
:1023D0006D1188F09F5798F0B92F9927B751B0F039
:1023E000E1F0660F771F881F991F1AF0BA95C9F799
:1023F00014C0B13091F00E948711B1E008950C949F
:102400008711672F782F8827B85F39F0B93FCCF351
:10241000869577956795B395D9F73EF49095809515
:10242000709561957F4F8F4F9F4F08950F931F9326
:10243000CF93DF938230910510F482E090E0E09139
:10244000E105F091E20530E020E0B0E0A0E0309757
:1024500099F42115310509F44AC0281B390B2430A1
:102460003105D8F58A819B816115710589F1FB01E0
:1024700093838283FE0111C04081518102811381C7
:1024800048175907E0F04817590799F4109761F079
:1024900012960C93129713961C933296CF01DF91EC
:1024A000CF911F910F9108950093E1051093E205DC
:1024B000F4CF2115310551F04217530738F0A90127
:1024C000DB019A01BD01DF01F801C1CFEF01F9CFB6
:1024D0009093E2058093E105CDCFFE01E20FF31F5B
:1024E000819391932250310939832883D7CF20914A
:1024F000DF053091E005232B41F420910202309159
:1025000003023093E0052093DF0520910002309113
:1025100001022115310541F42DB73EB74091040267
:1025200050910502241B350BE091DF05F091E00589
:10253000E217F307A0F42E1B3F0B2817390778F09A
:10254000AC014E5F5F4F2417350748F04E0F5F1FF9
:102550005093E0054093DF05819391939FCFF0E086
:10256000E0E09CCFCF93DF930097E9F0FC01329736
:1025700013821282A091E105B091E205ED0130E0F5
:1025800020E01097A1F420813181820F931F2091C8
:10259000DF053091E0052817390709F061C0F09395
:1025A000E005E093DF05DF91CF910895EA01CE17B2
:1025B000DF07E8F54A815B819E0141155105B1F7BE
:1025C000E901FB83EA8349915991C40FD51FEC17A8
:1025D000FD0761F4808191810296840F951FE901C6
:1025E00099838883828193819B838A83F0E0E0E0F2
:1025F00012968D919C9113970097B9F52D913C916E
:102600001197CD010296820F931F2091DF05309123
:10261000E0052817390739F6309751F51092E20591
:102620001092E105B093E005A093DF05BCCFD38302
:10263000C28340815181840F951FC817D90761F467
:102640004E5F5F4F88819981480F591F51834083A6
:102650008A819B81938382832115310509F0B0CF54
:10266000F093E205E093E1059ECFFD01DC01C0CFD0
:1026700013821282D7CF4F925F926F927F928F9286
:102680009F92AF92BF92CF92DF92EF92FF920F9301
:102690001F93CF93DF938C01009799F4CB01DF91C7
:1026A000CF911F910F91FF90EF90DF90CF90BF904F
:1026B000AF909F908F907F906F905F904F900C9411
:1026C0001612FC01E60FF71F9C0122503109E21798
:1026D000F30708F4AEC0D901CD91DC911197C6176C
:1026E000D70720F1C530D10578F0CE0104978617C1
:1026F000970750F0C61BD70B2297C193D1936D93C8
:102700007C93CF010E94B212C801DF91CF911F913B
:102710000F91FF90EF90DF90CF90BF90AF909F9080
:102720008F907F906F905F904F9008955B01AC1AEF
:10273000BD0A4C018C0E9D1EA091E105B091E205F1
:10274000512C412CF12CE12C109731F58091DF05B3
:102750009091E0058815990509F05CC0461657066A
:1027600008F058C08091000290910102009741F456
:102770008DB79EB74091040250910502841B950BC2
:10278000E817F90708F055C0F093E005E093DF057E
:10279000F90171836083B8CF8D919C911197129646
:1027A0006C90129713967C901397A815B90559F55C
:1027B0006C0142E0C40ED11CCA14DB0420F1AC0150
:1027C0004A195B09DA011296159780F062827382CA
:1027D00051834083D9016D937C93E114F10471F02E
:1027E000D7011396FC93EE9312978ECF22968C0FFF
:1027F0009D1FF90191838083F301EFCFF093E205F0
:10280000E093E10581CF4816590608F42C017D01BB
:10281000D3019ACFCB010E9416127C01009749F098
:10282000AE01B8010E941C14C8010E94B2128701B7
:102830006BCF10E000E068CFFB01DC0102C001902B
:102840000D9241505040D8F70895FB01DC010190F2
:102850000D920020E1F7089511E0C3E4D1E000E01B
:1028600006C0802FFE010E94C4112196011DC434B0
:0C287000D10780E00807A9F7F894FFCF1B
:10287C000000E305800000000101000000010000E1
:10288C00000000AB03DE022403F8035503330347B7
:10289C0003000000003A06DE0237065E040106144F
:1028AC00064904426567696E000D0A00476F742083
:1028BC00736572766F200020416E676C653A20005C
:1028CC00466F756E642000204D6F746F72730068D4
:0428DC0065726500BC
:00000001FF
