:100000000C9444010C9475010C9475010C947501C9
:100010000C9475010C9475010C9475010C94750188
:100020000C9475010C94A2070C94B6070C94AC07C1
:100030000C9475010C9475010C9475010C94750168
:100040000C9475010C9475010C9475010C94750158
:100050000C9475010C9475010C9475010C940806B0
:100060000C9475010C9478070C944E070C94750150
:100070000C9475010C9475010C9475010C94750128
:100080000C9475010C9475010C9475010C94750118
:100090000C9424070C94FA060C9475010C947501C9
:1000A0000C9475010C9475010C9475010C947501F8
:1000B0000C9475010C9475010C9475010C947501E8
:1000C0000C9475010C9475010C9475010C94D00678
:1000D0000C94A6060C9475010C947C060C945206A4
:1000E0000C9475010C9463020C949C0E0C946B029E
:1000F0000C9467020C941D050C9483020C94550318
:100100000C94F8030C9475020C9443050C94DE02D5
:100110000C9430020C9440050C9471020C9435023E
:100120000C940A050C94C0070C9449040C94AB037E
:100130000C944C020C9444020C9447030C9424033A
:100140000C9459020C945D020C9450020C947F02A2
:100150000C9433030C9453020C9448020C947902CF
:100160000C945E0400000A0B02090C0D0E08070334
:10017000040100000000000000000000000000007A
:10018000000000000000000000000000000000006F
:10019000121110000000000000000000000000002C
:1001A000000000000000000000000000200023000C
:1001B000260029002C002F0032000001000003015E
:1001C0000601090100002100240027002A002D005B
:1001D0003000330001010000040107010A010000A2
:1001E0002200250028002B002E00310034000201DF
:1001F0000000050108010B010505050507050808B4
:100200000808020202020A0A0808040404040101A0
:1002100001010101010103030303030303030407B5
:1002200007070C0C0C0C0C0C0C0C0202020206064C
:100230000606060606060B0B0B0B0B0B0B0B01023F
:1002400010202008081020401020408002010201E8
:1002500008040201010204081020408080402010A0
:1002600008040201800402018040201008040201F9
:100270000804020101020408102040800102040861
:1002800010204080C0079C0E11241FBECFEFD1E28A
:10029000DEBFCDBF00E00CBF12E0A0E0B2E0ECE2B8
:1002A000F2E200E00BBF02C007900D92AA34B10742
:1002B000D9F725E0AAE4B2E001C01D92A33CB20741
:1002C000E1F711E0C3E4D1E000E006C021970109A5
:1002D000802FFE010E941E0FC234D10780E0080764
:1002E000A9F70E9457090C9404110C940000CF92B6
:1002F000DF92EF92FF92CF93DF93EC016A017B01D3
:10030000E889F98982E08083C11481EED806E1048E
:10031000F104A1F060E079E08DE390E0A70196019F
:100320000E94FC0E2150310941095109569547950B
:1003300037952795211580E1380798F0E889F989E4
:10034000108260E874E88EE190E0A70196010E94B7
:10035000FC0E2150310941095109569547953795B1
:100360002795EC85FD853083EE85FF852083188EEB
:10037000EC89FD8986E08083EA89FB898081806140
:100380008083EA89FB89808188608083EA89FB8990
:10039000808180688083EA89FB8980818F7D80836A
:1003A000DF91CF91FF90EF90DF90CF900895209153
:1003B000950230919602409197025091980224271D
:1003C00035274091990250919A022427352730937E
:1003D000300320932F03680F791FFC014191CF0157
:1003E00020912F0330913003242730933003209342
:1003F0002F036E177F0789F7C9018E7F992708950C
:10040000282F30E0F901EC59FE4F9491F901E25C9C
:10041000FD4F449128503E4FF9012491222309F4C5
:1004200032C0992311F191509231F8F4E92FF0E0A4
:100430008827E25EFD4F8F4F0C941E0F4C02500236
:100440003002440248023502530259025D0263023F
:1004500067026B0271027502350279027F02830224
:10046000809180008F7780938000E22FF0E0EE0F84
:10047000FF1FE252FE4FA591B4918FB7F894EC9113
:100480004E2B4C938FBF0895809180008F7DEBCFD2
:1004900080918000877FE7CF84B58F7784BDE5CFDB
:1004A00084B58F7DFBCF8091B0008F778093B000B3
:1004B000DCCF8091B0008F7DF9CF809190008F7755
:1004C00080939000D2CF809190008F7DF9CF809162
:1004D0009000877FF5CF8091A0008F778093A00058
:1004E000C4CF8091A0008F7DF9CF8091A000877F3D
:1004F000F5CF809120018F7780932001B6CF809136
:1005000020018F7DF9CF80912001877FF5CF3FB704
:10051000F8948091910290919202A0919302B091EF
:10052000940226B5A89B05C02F3F19F00196A11D86
:10053000B11D3FBFBA2FA92F982F8827BC01CD012D
:10054000620F711D811D911D42E0660F771F881F8C
:10055000991F4A95D1F708958F929F92AF92BF92BB
:10056000CF92DF92EF92FF924B015C010E948702D3
:100570006B017C010E9487026C197D098E099F091D
:10058000683E734081059105A8F321E0821A910825
:10059000A108B10888EEC80E83E0D81EE11CF11C4A
:1005A00081149104A104B10429F7FF90EF90DF902A
:1005B000CF90BF90AF909F908F900895AF92BF92D1
:1005C000CF92DF92EF92FF920F931F93CF93DF931F
:1005D0006C017B018B01040F151FEB015E01AE184E
:1005E000BF08C017D10759F06991D601ED91FC9170
:1005F0000190F081E02DC6011995892B79F7C5018D
:10060000DF91CF911F910F91FF90EF90DF90CF90EE
:10061000BF90AF900895FC01A089B1898C91A68903
:10062000B78982FD0FC09C91818D8F5F8F73228D62
:10063000821749F0A18DAE0FBF2FB11D5D969C931F
:10064000818F08958C910895FC01538D448D252F41
:1006500030E0842F90E0821B930B541710F0CF965C
:10066000089501970895FC01918D828D981761F08E
:10067000A28DAE0FBF2FB11D5D968C91928D9F5FA5
:100680009F73928F90E008958FEF9FEF0895FC0184
:10069000918D828D981731F0828DE80FF11D858D37
:1006A00090E008958FEF9FEF0895FC01918D228DCA
:1006B000892F90E0805C9F4F821B91098F7399274F
:1006C000089583E393E00E94550321E0892B09F408
:1006D00020E0822F089580ED93E00E94550321E0F1
:1006E000892B09F420E0822F08958DE694E00E9482
:1006F000550321E0892B09F420E0822F08958AE038
:1007000095E00E94550321E0892B09F420E0822F17
:100710000895FC01A48DA80FB92FB11DA35ABF4F96
:100720002C91848D90E001968F739927848FA689F0
:10073000B7892C93A089B1898C91837080648C9344
:10074000938D848D981306C00288F389E02D8081F3
:100750008F7D80830895EF92FF920F931F93CF9325
:10076000DF93EC0181E0888F9B8D8C8D98131AC0EC
:10077000E889F989808185FF15C09FB7F894EE89D3
:10078000FF896083E889F989808183708064808330
:100790009FBF81E090E0DF91CF911F910F91FF907B
:1007A000EF900895F62E0B8D10E00F5F1F4F0F7323
:1007B0001127E02E8C8D8E110CC00FB607FCFACFDE
:1007C000E889F989808185FFF5CFCE010E948903F0
:1007D000F1CFEB8DEC0FFD2FF11DE35AFF4FF082AF
:1007E0009FB7F8940B8FEA89FB8980818062CFCF15
:1007F000CF93DF93EC01888D8823B9F0AA89BB8958
:10080000E889F9898C9185FD03C0808186FD0DC042
:100810000FB607FCF7CF8C9185FFF2CF808185FF63
:10082000EDCFCE010E948903E9CFDF91CF910895EA
:1008300080E090E0892B29F00E947F0381110E94C3
:10084000000080E090E0892B29F00E94750381115F
:100850000E94000080E090E0892B29F00E946B0349
:1008600081110E94000080E090E0892B29F00E9415
:10087000610381110C9400000895DC015196ED9103
:10088000FC915297908150968C918095892380831A
:100890000895892B81F490918B0280918A02981798
:1008A00051F0E0918B02F0E0E65BFD4F8081082E75
:1008B000000C990B08958FEF9FEF0895892B39F461
:1008C0008FB7F89410928A0210928B028FBF08950E
:1008D000EF92FF920F931F93CF93DF93EC018B0165
:1008E00080912B0390912C038230910509F43DC037
:1008F000B4F4019721F180912B0390912C03823065
:10090000910509F47DC00CF05EC0019709F473C035
:10091000DF91CF911F910F91FF90EF900895833059
:100920009105D1F1049739F787EA95E00E945E04BA
:1009300061E070E080E090E00E94AC02DCCF8DE6E8
:1009400094E00E94F8032BE1E22E23E0F22E8DE6E4
:1009500094E00E945503892B71F28DE694E00E9489
:100960003303C7010197F1F7F2CF80ED93E00E94C6
:10097000F8039BE1E92E93E0F92E80ED93E00E94CD
:100980005503892B09F4B7CF80ED93E00E94330320
:10099000C7010197F1F7F1CF83E393E00E94F803D9
:1009A0008BE1E82E83E0F82E83E393E00E94550369
:1009B000892B09F4A0CF83E393E00E943303C7019E
:1009C0000197F1F7F1CF83309105F9F0049709F021
:1009D0009FCFA801BE0187EA95E00E94DE0261E098
:1009E00070E080E090E0DF91CF911F910F91FF9038
:1009F000EF900C94AC02A801BE018DE694E0EDCF1F
:100A0000A801BE0180ED93E0E8CFA801BE0183E319
:100A100093E0E3CF892B71F480918A0220918B02BD
:100A200090E0805C9F4F821B910960E470E00E941F
:100A3000E80E089590E080E00895892BB9F4909134
:100A40008B0280918A02981789F0E0918B02F0E086
:100A5000E65BFD4F808120918B0230E02F5F3F4F9E
:100A60002F73332720938B0290E008958FEF9FEF31
:100A7000089520E001972FEF8F3F9207D9F708954F
:100A800090E080E00895DF92EF92FF920F931F9322
:100A9000CF93DF93EC01898D9A8D892B71F481E0DE
:100AA00090E09B838A8390E080E0DF91CF911F915B
:100AB0000F91FF90EF90DF900895162FDFB6F89416
:100AC0008B8D81FD29C0CE010E943D04898D9A8DB8
:100AD00005960E9439058B8D98E0E92EF12C01E0F6
:100AE00081FF28C0812F8023F1F0CE010E943D04B8
:100AF000898D9A8D0E943905000F81E0E81AF1086E
:100B000089F7CE010E943D04DFBE898D9A8D0E9437
:100B1000390581E090E0C9CFE989FA898081988917
:100B2000892B8083D3CFE989FA8980819889892BA1
:100B30008083DECF812F8023B1F0E989FA8980811B
:100B40009889892B8083898D9A8D0E943905000FA1
:100B500081E0E81AF10871F7E989FA8980819889BA
:100B6000892B8083D1CFCE010E943D04ECCFFC01C4
:100B700001900020E9F73197AF01481B590BBC01E8
:100B80008AE095E00C94DE028F929F92AF92BF9222
:100B90000F931F93CF93DF93CDB7DEB7A1970FB617
:100BA000F894DEBF0FBECDBF19A2423008F44AE070
:100BB0008E010F5D1F4F842E912CB12CA12CA5010D
:100BC00094010E94FC0EE62FB901CA01EA30F4F448
:100BD000E05DD801EE938D01232B242B252B79F793
:100BE00090E080E0109719F0CD010E94B705A19622
:100BF0000FB6F894DEBF0FBECDBFDF91CF911F912E
:100C00000F91BF90AF909F908F900895E95CE1CFD6
:100C10001F920F920FB60F9211242F933F938F9331
:100C20009F93AF93BF9380918D0290918E02A0917C
:100C30008F02B091900230918C0223E0230F2D3768
:100C400058F50196A11DB11D20938C0280938D0251
:100C500090938E02A0938F02B093900280919102A4
:100C600090919202A0919302B09194020196A11DDD
:100C7000B11D8093910290939202A0939302B0933E
:100C80009402BF91AF919F918F913F912F910F90BF
:100C90000FBE0F901F90189526E8230F0296A11DF6
:100CA000B11DD2CF1F920F920FB60F9211240BB627
:100CB0000F922F933F934F935F936F937F938F93F5
:100CC0009F93AF93BF93EF93FF9383E393E00E94CF
:100CD0008903FF91EF91BF91AF919F918F917F9188
:100CE0006F915F914F913F912F910F900BBE0F909D
:100CF0000FBE0F901F9018951F920F920FB60F9274
:100D000011240BB60F922F933F934F935F936F93E2
:100D10007F938F939F93AF93BF93EF93FF9383E35F
:100D200093E00E940B03FF91EF91BF91AF919F91D0
:100D30008F917F916F915F914F913F912F910F9084
:100D40000BBE0F900FBE0F901F9018951F920F9221
:100D50000FB60F9211240BB60F922F933F934F9320
:100D60005F936F937F938F939F93AF93BF93EF9313
:100D7000FF9380ED93E00E948903FF91EF91BF9173
:100D8000AF919F918F917F916F915F914F913F9123
:100D90002F910F900BBE0F900FBE0F901F901895C4
:100DA0001F920F920FB60F9211240BB60F922F9332
:100DB0003F934F935F936F937F938F939F93AF93E3
:100DC000BF93EF93FF9380ED93E00E940B03FF919D
:100DD000EF91BF91AF919F918F917F916F915F91B3
:100DE0004F913F912F910F900BBE0F900FBE0F9020
:100DF0001F9018951F920F920FB60F9211240BB6E9
:100E00000F922F933F934F935F936F937F938F93A3
:100E10009F93AF93BF93EF93FF938DE694E00E946F
:100E20008903FF91EF91BF91AF919F918F917F9136
:100E30006F915F914F913F912F910F900BBE0F904B
:100E40000FBE0F901F9018951F920F920FB60F9222
:100E500011240BB60F922F933F934F935F936F9391
:100E60007F938F939F93AF93BF93EF93FF938DE601
:100E700094E00E940B03FF91EF91BF91AF919F917E
:100E80008F917F916F915F914F913F912F910F9033
:100E90000BBE0F900FBE0F901F9018951F920F92D0
:100EA0000FB60F9211240BB60F922F933F934F93CF
:100EB0005F936F937F938F939F93AF93BF93EF93C2
:100EC000FF938AE095E00E948903FF91EF91BF9123
:100ED000AF919F918F917F916F915F914F913F91D2
:100EE0002F910F900BBE0F900FBE0F901F90189573
:100EF0001F920F920FB60F9211240BB60F922F93E1
:100F00003F934F935F936F937F938F939F93AF9391
:100F1000BF93EF93FF938AE095E00E940B03FF914C
:100F2000EF91BF91AF919F918F917F916F915F9161
:100F30004F913F912F910F900BBE0F900FBE0F90CE
:100F40001F9018951F920F920FB60F9211240F90B9
:100F50000FBE0F901F9018951F920F920FB60F9211
:100F600011240F900FBE0F901F9018951F920F9293
:100F70000FB60F9211240F900FBE0F901F9018956F
:100F80000F931F93CF93DF93109236031092350384
:100F900088EE93E0A0E0B0E08093370390933803AD
:100FA000A0933903B0933A0324E032E03093340342
:100FB0002093330345E351E05093400340933F03B4
:100FC00044E351E0509342034093410340E351E036
:100FD000509344034093430341E351E0509346034D
:100FE0004093450342E351E0509348034093470345
:100FF00046E351E050934A034093490310924C0357
:1010000010924D0310924E0310924F031092D3038F
:101010001092D2038093D4039093D503A093D60368
:10102000B093D7033093D1032093D00345ED50E024
:101030005093DD034093DC0344ED50E05093DF0315
:101040004093DE0340ED50E05093E1034093E00312
:1010500041ED50E05093E3034093E20342ED50E052
:101060005093E5034093E40346ED50E05093E703CB
:101070004093E6031092E9031092EA031092EB0307
:101080001092EC031092700410926F04809371041C
:1010900090937204A0937304B093740430936E041D
:1010A00020936D044DEC50E050937A044093790402
:1010B0004CEC50E050937C0440937B0448EC50E0AF
:1010C00050937E0440937D0449EC50E0509380049B
:1010D00040937F044AEC50E0509382044093810493
:1010E0004EEC50E0509384044093830410928604A5
:1010F00010928704109288041092890410920D05B2
:1011000010920C0580930E0590930F05A093100587
:10111000B093110530930B0520930A0525EC30E0C0
:10112000309317052093160524EC30E03093190511
:101130002093180520EC30E030931B0520931A050E
:1011400021EC30E030931D0520931C0522EC30E0AB
:1011500030931F0520931E0526EC30E030932105C7
:101160002093200510922305109224051092250546
:10117000109226051092AA051092A9058093AB053E
:101180009093AC05A093AD05B093AE0586E192E0D7
:101190009093A8058093A7051092BB051092BA05FD
:1011A0001092BD051092BC051092BF051092BE05AD
:1011B0001092C1051092C0058091C2058E7F8D7F6F
:1011C0008093C2050FE312E0F8012491C9EFD1E04A
:1011D000FE018491882399F090E0880F991FFC010B
:1011E000EC53FE4FA591B491FC01E252FE4F859164
:1011F00094918FB7F8949C91292B2C938FBF81E009
:101200000E940002F80104910093B705FE01C49109
:10121000EC2FF0E0EE0FFF1FE252FE4F859194910C
:101220009093B9058093B8050EE312E0F80124917C
:10123000C8EFD1E0FE0184918823C9F090E0880FC7
:10124000991FFC01EC53FE4FA591B491FC01E252B1
:10125000FE4F459154913FB7F8949C91822F809511
:1012600098239C93FA019081892380833FBF8091CA
:10127000C20581FD03C080E00E9400021092B30508
:10128000F80104910093B405FE01C491EC2FF0E045
:10129000EE0FFF1FE655FE4F859194919093B60592
:1012A0008093B505DF91CF911F910F9108957894A8
:1012B00084B5826084BD84B5816084BD85B582605B
:1012C00085BD85B5816085BD80916E00816080930C
:1012D0006E00109281008091810082608093810075
:1012E0008091810081608093810080918000816085
:1012F000809380008091B10084608093B1008091E0
:10130000B00081608093B0008091910082608093F2
:101310009100809191008160809391008091900074
:101320008160809390008091A10082608093A100F1
:101330008091A10081608093A1008091A0008160D4
:101340008093A0008091210182608093210180918F
:10135000210181608093210180912001816080932F
:10136000200180917A00846080937A0080917A00D5
:10137000826080937A0080917A00816080937A0005
:1013800080917A00806880937A001092C10060EDAD
:1013900077E080E090E00E94AC0240E052EC61E037
:1013A00070E08AE095E00E94770184E292E00E947A
:1013B000B7058AE292E00E94B70540E052EC61E096
:1013C00070E080ED93E00E94770182E090E09093DE
:1013D0002C0380932B0387E090E0909396028093F8
:1013E00095028BE190E0909398028093970289E0B8
:1013F00090E090939A028093990284E190E0909318
:101400009E0280939D028AEE90E09093A0028093CA
:101410009F02CFEFC093A102C093A20287E0809306
:10142000A3028BE18093A40289E08093A50284E16A
:101430008093A6028AEE8093A70267E070E081EABB
:1014400092E00E94680464EF71E080E090E00E9406
:10145000AC0210922E0310922D0310929C02109257
:101460009B0264E670E080E090E00E94AC028BE0BA
:1014700090E090939602809395024EEFE42EF12C2B
:10148000F0929802E092970203E010E010939A0223
:101490000093990280E38093DB0282E08093DC0278
:1014A0001092DD021092DE0284E090E090939C02A4
:1014B00080939B0264E070E08BED92E00E94D70184
:1014C00090939E0280939D029C01209530952E7FE3
:1014D00033273093A00220939F02C093A102C093B0
:1014E000A20260919502709196026093A30290917E
:1014F00097029093A402909199029093A5028093F1
:10150000A6022093A7028091DB028093A80280911B
:10151000DC028093A9028091DD028093AA0280916F
:10152000DE028093AB0281EA92E00E9468046AE0E6
:1015300070E080E090E00E94AC025AE0C52ED12C11
:10154000D0929602C0929502F0929802E092970291
:1015500010939A020093990264E3B62EB092DB02D4
:10156000D1E0D093DC02D093DD0210939C02009373
:101570009B0263E070E08BED92E00E94D7019093B4
:101580009E0280939D029C01209530952E7F3327EB
:101590003093A00220939F02C093A102C093A202A5
:1015A00060919502709196026093A30290919702C8
:1015B0009093A402909199029093A5028093A60221
:1015C0002093A7028091DB028093A8028091DC0225
:1015D0008093A9028091DD028093AA0281EA92E0C1
:1015E0000E9468046AE070E080E090E00E94AC0233
:1015F000D0929602C0929502F0929802E0929702E1
:1016000010939A0200939902B092DB02D093DC020D
:1016100080E68093DD0210939C0200939B0263E0BE
:1016200070E08BED92E00E94D70190939E02809330
:101630009D029C01209530952E7F33273093A00288
:1016400020939F02C093A102C093A20260919502D1
:10165000709196026093A302909197029093A402D6
:10166000909199029093A5028093A6022093A702DD
:101670008091DB028093A8028091DC028093A90212
:101680008091DD028093AA0281EA92E00E946804C0
:101690006AE070E080E090E00E94AC0268EC70E0EC
:1016A00080E090E00E94AC022224239433243A94F8
:1016B000CBE9DFE08AE090E0909396028093950278
:1016C0008BE190E0909398028093970210939A0296
:1016D0000093990284E38093DB022092DC02109253
:1016E000DD0210939C0200939B0263E070E08BED9F
:1016F00092E00E94D70190939E0280939D029C01EC
:10170000209530952E7F33273093A00220939F029F
:101710003092A1023092A2026091950270919602DD
:101720006093A302909197029093A40290919902E2
:101730009093A5028093A6022093A7028091DB02DA
:101740008093A8028091DC028093A9028091DD023F
:101750008093AA0281EA92E00E9468048DE292E0FE
:101760000E94B70589E090E09093960280939502DD
:101770008BE190E0909398028093970284E090E050
:1017800090939A02809399028AE38093DB0282E02D
:101790008093DC0282E090E090939C0280939B0215
:1017A00062E070E08BED92E00E94D70190939E0280
:1017B00080939D029C01209530952E7F3327309396
:1017C000A00220939F023092A1023092A202609167
:1017D0009502709196026093A30290919702909364
:1017E000A402909199029093A5028093A60220935F
:1017F000A7028091DB028093A8028091DC02809393
:10180000A90281EA92E00E94680461E070E080E051
:1018100090E00E94AC0280912B0390912C03F12C5C
:10182000E12C8230910509F46CC10CF0DBC0F12C85
:10183000E12C019709F424C18091A30290E09093D8
:101840009602809395028091A40290E09093980272
:10185000809397028091A50290E090939A028093E2
:1018600099028091A8028093DB028091A902809363
:10187000DC028091AA028093DD028091AB0280930A
:10188000DE028091AC028093DF028091AD028093F2
:10189000E00286E090E090939C0280939B0266E0D9
:1018A00070E08BED92E00E94D70190939E028093AE
:1018B0009D029C01209530952E7F33273093A00206
:1018C00020939F024091A6024817190609F09DC176
:1018D0008091A7028217130609F097C16091AB02AD
:1018E00063708091AA02762F682F7250072E000C29
:1018F000880B990B0E94DD0F26E636E646EA5EE38A
:101900000E9492106B017C014B015C01AC019B01B8
:101910000E94FF10882309F47BC18EE392E00E94AD
:10192000B7058AE292E00E94B7058AE090E09093C2
:101930009602809395028BE190E0909398028093B9
:10194000970210939A020093990285E38093DB0239
:101950002092DC022092DD0210939C0200939B02F5
:1019600063E070E08BED92E00E94D70190939E02BD
:1019700080939D029C01209530952E7F33273093D4
:10198000A00220939F023092A1023092A2026091A5
:101990009502709196026093A302909197029093A2
:1019A000A402909199029093A5028093A60220939D
:1019B000A7028091DB028093A8028091DC028093D1
:1019C000A9028091DD028093AA0281EA92E00E943E
:1019D000680460EB74E080E090E00E94AC020E943A
:1019E000180468CE8330910509F4CCC0049709F03F
:1019F00023CFF12CE12C87EA95E00E940A050D9790
:101A00005CF495E0E916F1043CF48FEFE81AF80A6B
:101A1000CE010197F1F7EFCFF12CE12CD12CC12CA5
:101A200087EA95E00E940A051816190624F587EA48
:101A300095E00E941D05B82E87EA95E00E944904B2
:101A40009FEFB91202C08F3F99F081E0E816F104D0
:101A500039F79DE0C916D1041CF7F601EB56FD4F8E
:101A6000B4868FEFC81AD80AEE24E394F12CD8CFAD
:101A7000D12CC12CF2CF87EA95E00E945E04DCCE27
:101A80008DE694E00E9455030D975CF495E0E9160D
:101A9000F1043CF48FEFE81AF80ACE010197F1F750
:101AA000EFCFF12CE12CD12CC12C8DE694E00E94DB
:101AB0005503181619060CF0BFCE8DE694E00E946F
:101AC0003303B82E8DE694E00E9447039FEFB912CE
:101AD00002C08F3F99F081E0E816F10431F79DE0F4
:101AE000C916D10414F7F601EB56FD4FB4868FEFFB
:101AF000C81AD80AEE24E394F12CD7CFD12CC12CEC
:101B0000F2CF80ED93E00E9455030D975CF495E0D1
:101B1000E916F1043CF48FEFE81AF80ACE010197B8
:101B2000F1F7EFCFF12CE12CD12CC12C80ED93E01B
:101B30000E945503181619060CF07ECE80ED93E036
:101B40000E943303B82E80ED93E00E9447039FEF7D
:101B5000B91202C08F3F99F081E0E816F10431F725
:101B60009DE0C916D10414F7F601EB56FD4FB4867B
:101B70008FEFC81AD80AEE24E394F12CD7CFD12CDA
:101B8000C12CF2CFF12CE12C83E393E00E945503AA
:101B90000D975CF495E0E916F1043CF48FEFE81A38
:101BA000F80ACE010197F1F7EFCFF12CE12CD12CFF
:101BB000C12C83E393E00E945503181619060CF01C
:101BC0003BCE83E393E00E943303B82E83E393E09C
:101BD0000E9447039FEFB91202C08F3F99F081E046
:101BE000E816F10431F79DE0C916D10414F7F601A7
:101BF000EB56FD4FB4868FEFC81AD80AEE24E39453
:101C0000F12CD7CFD12CC12CF2CF6FEF7FEF6DCE5F
:101C100026013701E89477F82FEF3FEF4FE75FE7B2
:101C2000C301B2010E94FF1081110DC02FEF3FEFE1
:101C30004FE75FE7C301B2010E94A70F18161CF41B
:101C400082E492E06CCE2FEF3FEF4FE75FE4C701F5
:101C5000B6010E948D1018161CF486E492E05FCE47
:101C60002FEF3FEF4FE75FECC701B6010E94A70FD0
:101C700087FDF3CF20E030E0A901C701B6010E9443
:101C8000A70F87FF0BC06DE28AE095E00E94AB03CF
:101C900046015701B7FAB094B7F8B0942AE037ED8F
:101CA00043EA5BE3C501B4010E943B0F4B015C01B9
:101CB0000E94AC0F6B017C010E94DB0F9B01AC0109
:101CC000C501B4010E943A0F4B015C014AE0C70113
:101CD000B6010E94C4056EE28AE095E00E94AB0363
:101CE00020E030E040E251E4C501B4010E949210CE
:101CF0004B015C010E94AC0F6B01F12CE12C4AE01E
:101D0000C701B6010E94C405C701B6010E94DB0FDE
:101D10009B01AC01C501B4010E943A0F20E030E004
:101D200040E251E40E9492100E94AC0F90E080E0EB
:101D30004AE00E94C405F5CD86E192E09093A805A3
:101D40008093A7052091B30546EF420F443058F029
:101D50008EEC820F843038F082EC820FEDE6F0E0FA
:101D6000883018F00895EBE6F0E03081822F86503D
:101D7000990B443080F087EF2233A9F08BEF2333A7
:101D800091F08DEF243379F082EC820F8830D0F41B
:101D9000822F8E53990BBC0181E090E001C0880F27
:101DA0006A95EAF780958323443070F09EEC920F99
:101DB000943050F02E53F0E0E0E0283038F4EDE6B7
:101DC000F0E004C08EEFEFCFEBE6F0E08083CACF07
:101DD00097FB072E16F4009407D077FD09D00E94D8
:101DE000260F07FC05D03EF4909581959F4F0895EE
:101DF000709561957F4F0895A1E21A2EAA1BBB1B17
:101E0000FD010DC0AA1FBB1FEE1FFF1FA217B307C6
:101E1000E407F50720F0A21BB30BE40BF50B661FDC
:101E2000771F881F991F1A9469F7609570958095A0
:101E300090959B01AC01BD01CF010895EE0FFF1FEE
:101E4000881F8BBF0790F691E02D1994AA1BBB1B2E
:101E500051E107C0AA1FBB1FA617B70710F0A61BAA
:101E6000B70B881F991F5A95A9F780959095BC01CB
:101E7000CD0108955058BB27AA270E94520F0C94F9
:101E800053100E94451038F00E944C1020F039F495
:101E90009F3F19F426F40C9442100EF4E095E7FBF2
:101EA0000C943C10E92F0E94641058F3BA17620793
:101EB00073078407950720F079F4A6F50C94861033
:101EC0000EF4E0950B2EBA2FA02D0B01B901900155
:101ED0000C01CA01A0011124FF27591B99F0593F99
:101EE00050F4503E68F11A16F040A22F232F342FE1
:101EF0004427585FF3CF469537952795A795F0402F
:101F00005395C9F77EF41F16BA0B620B730B840B43
:101F1000BAF09150A1F0FF0FBB1F661F771F881FFB
:101F2000C2F70EC0BA0F621F731F841F48F4879553
:101F300077956795B795F7959E3F08F0B0CF939545
:101F4000880F08F09927EE0F9795879508950E94BE
:101F5000181008F481E008950E946C1088F09F57D3
:101F600098F0B92F9927B751B0F0E1F0660F771FBD
:101F7000881F991F1AF0BA95C9F714C0B13091F0B3
:101F80000E948610B1E008950C948610672F782F78
:101F90008827B85F39F0B93FCCF386957795679578
:101FA000B395D9F73EF490958095709561957F4FE4
:101FB0008F4F9F4F0895E89409C097FB3EF490958A
:101FC0008095709561957F4F8F4F9F4F9923A9F012
:101FD000F92F96E9BB279395F695879577956795A1
:101FE000B795F111F8CFFAF4BB0F11F460FF1BC0E5
:101FF0006F5F7F4F8F4F9F4F16C0882311F096E978
:1020000011C0772321F09EE8872F762F05C0662325
:1020100071F096E8862F70E060E02AF09A95660FDE
:10202000771F881FDAF7880F9695879597F9089597
:10203000990F0008550FAA0BE0E8FEEF16161706D9
:10204000E807F907C0F012161306E407F50798F041
:10205000621B730B840B950B39F40A2661F0232B5A
:10206000242B252B21F408950A2609F4A140A695D6
:102070008FEF811D811D089597F99F6780E870E0BB
:1020800060E008959FEF80EC089500240A941616EE
:10209000170618060906089500240A941216130656
:1020A000140605060895092E0394000C11F48823E4
:1020B00052F0BB0F40F4BF2B11F460FF04C06F5F00
:1020C0007F4F8F4F9F4F089557FD9058440F551FD6
:1020D00059F05F3F71F04795880F97FB991F61F0AA
:1020E0009F3F79F087950895121613061406551F21
:1020F000F2CF4695F1DF08C0161617061806991F8D
:10210000F1CF86957105610508940895E894BB2781
:1021100066277727CB0197F908950E94181008F4D5
:102120008FEF08950E94A5100C9453100E94451043
:1021300038F00E944C1020F0952311F00C943C10C4
:102140000C94421011240C9487100E94641070F3B8
:10215000959FC1F3950F50E0551F629FF001729F4C
:10216000BB27F00DB11D639FAA27F00DB11DAA1F5B
:10217000649F6627B00DA11D661F829F2227B00DA8
:10218000A11D621F739FB00DA11D621F839FA00D33
:10219000611D221F749F3327A00D611D231F849F83
:1021A000600D211D822F762F6A2F11249F575040DA
:1021B0009AF0F1F088234AF0EE0FFF1FBB1F661F55
:1021C000771F881F91505040A9F79E3F510580F01E
:1021D0000C943C100C9487105F3FE4F3983ED4F3CA
:1021E000869577956795B795F795E7959F5FC1F7C2
:1021F000FE2B880F911D9695879597F908950E945B
:102200001810880B990B089511E0C3E4D1E000E0A9
:1022100006C0802FFE010E941E0F2196011DC434AE
:0C222000D10780E00807A9F7F894FFCF71
:10222C0000000000AB03DE022403F8035503330364
:10223C004703000000004305DE0240055E040A056A
:10224C001D054904426567696E000D0A00476574F7
:10225C0020736572766F20416E676C653A006E6113
:0A226C006E00696E66006F76660072
:00000001FF
