:100000000C9444010C9475010C9475010C947501C9
:100010000C9475010C9475010C9475010C94750188
:100020000C9475010C94C20A0C94D60A0C94CC0A58
:100030000C9475010C9475010C9475010C94750168
:100040000C9475010C9475010C9475010C94750158
:100050000C9475010C9475010C9475010C9428098D
:100060000C9475010C94980A0C946E0A0C9475010A
:100070000C9475010C9475010C9475010C94750128
:100080000C9475010C9475010C9475010C94750118
:100090000C94440A0C941A0A0C9475010C94750182
:1000A0000C9475010C9475010C9475010C947501F8
:1000B0000C9475010C9475010C9475010C947501E8
:1000C0000C9475010C9475010C9475010C94F00955
:1000D0000C94C6090C9475010C949C090C9472093B
:1000E0000C9475010C9463020C94CB0E0C946B026F
:1000F0000C9467020C9483020C94E00A0C94550350
:100100000C94F8030C9475020C94DE020C943002EB
:100110000C9471020C9474050C9435020C944904EF
:100120000C94AB030C944C020C9444020C944703C3
:100130000C9424030C9459020C945D020C9450020C
:100140000C947F020C9433030C9479070C945302A3
:100150000C9448020C9479020C9476070C945E047B
:100160000C94610500000A0B02090C0D0E08070330
:10017000040100000000000000000000000000007A
:10018000000000000000000000000000000000006F
:10019000121110000000000000000000000000002C
:1001A000000000000000000000000000200023000C
:1001B000260029002C002F0032000001000003015E
:1001C0000601090100002100240027002A002D005B
:1001D0003000330001010000040107010A010000A2
:1001E0002200250028002B002E00310034000201DF
:1001F0000000050108010B010505050507050808B4
:100200000808020202020A0A0808040404040101A0
:1002100001010101010103030303030303030407B5
:1002200007070C0C0C0C0C0C0C0C0202020206064C
:100230000606060606060B0B0B0B0B0B0B0B01023F
:1002400010202008081020401020408002010201E8
:1002500008040201010204081020408080402010A0
:1002600008040201800402018040201008040201F9
:100270000804020101020408102040800102040861
:1002800010204080E00ACB0E11241FBECFEFD1E238
:10029000DEBFCDBF00E00CBF12E0A0E0B2E0EEE6B2
:1002A000F3E200E00BBF02C007900D92AC37B1073C
:1002B000D9F725E0ACE7B2E001C01D92A53FB20737
:1002C000E1F711E0C3E4D1E000E006C021970109A5
:1002D000802FFE010E944D0FC234D10780E0080735
:1002E000A9F70E94770C0C94A5110C940000CF92F2
:1002F000DF92EF92FF92CF93DF93EC016A017B01D3
:10030000E889F98982E08083C11481EED806E1048E
:10031000F104A1F060E079E08DE390E0A70196019F
:100320000E942B0F215031094109510956954795DB
:1003300037952795211580E1380798F0E889F989E4
:10034000108260E874E88EE190E0A70196010E94B7
:100350002B0F215031094109510956954795379581
:100360002795EC85FD853083EE85FF852083188EEB
:10037000EC89FD8986E08083EA89FB898081806140
:100380008083EA89FB89808188608083EA89FB8990
:10039000808180688083EA89FB8980818F7D80836A
:1003A000DF91CF91FF90EF90DF90CF900895209153
:1003B000C7023091C8024091C9025091CA02242755
:1003C00035274091CB025091CC022427352730931A
:1003D000620320936103680F791FFC014191CF01F3
:1003E00020916103309162032427309362032093AC
:1003F00061036E177F0789F7C9018E7F99270895DA
:10040000282F30E0F901EC59FE4F9491F901E25C9C
:10041000FD4F449128503E4FF9012491222309F4C5
:1004200032C0992311F191509231F8F4E92FF0E0A4
:100430008827E25EFD4F8F4F0C944D0F4C02500207
:100440003002440248023502530259025D0263023F
:1004500067026B0271027502350279027F02830224
:10046000809180008F7780938000E22FF0E0EE0F84
:10047000FF1FE252FE4FA591B4918FB7F894EC9113
:100480004E2B4C938FBF0895809180008F7DEBCFD2
:1004900080918000877FE7CF84B58F7784BDE5CFDB
:1004A00084B58F7DFBCF8091B0008F778093B000B3
:1004B000DCCF8091B0008F7DF9CF809190008F7755
:1004C00080939000D2CF809190008F7DF9CF809162
:1004D0009000877FF5CF8091A0008F778093A00058
:1004E000C4CF8091A0008F7DF9CF8091A000877F3D
:1004F000F5CF809120018F7780932001B6CF809136
:1005000020018F7DF9CF80912001877FF5CF3FB704
:10051000F8948091C3029091C402A091C502B09159
:10052000C60226B5A89B05C02F3F19F00196A11D54
:10053000B11D3FBFBA2FA92F982F8827BC01CD012D
:10054000620F711D811D911D42E0660F771F881F8C
:10055000991F4A95D1F708958F929F92AF92BF92BB
:10056000CF92DF92EF92FF924B015C010E948702D3
:100570006B017C010E9487026C197D098E099F091D
:10058000683E734081059105A8F321E0821A910825
:10059000A108B10888EEC80E83E0D81EE11CF11C4A
:1005A00081149104A104B10429F7FF90EF90DF902A
:1005B000CF90BF90AF909F908F900895AF92BF92D1
:1005C000CF92DF92EF92FF920F931F93CF93DF931F
:1005D0006C017B018B01040F151FEB015E01AE184E
:1005E000BF08C017D10759F06991D601ED91FC9170
:1005F0000190F081E02DC6011995892B79F7C5018D
:10060000DF91CF911F910F91FF90EF90DF90CF90EE
:10061000BF90AF900895FC01A089B1898C91A68903
:10062000B78982FD0FC09C91818D8F5F8F73228D62
:10063000821749F0A18DAE0FBF2FB11D5D969C931F
:10064000818F08958C910895FC01538D448D252F41
:1006500030E0842F90E0821B930B541710F0CF965C
:10066000089501970895FC01918D828D981761F08E
:10067000A28DAE0FBF2FB11D5D968C91928D9F5FA5
:100680009F73928F90E008958FEF9FEF0895FC0184
:10069000918D828D981731F0828DE80FF11D858D37
:1006A00090E008958FEF9FEF0895FC01918D228DCA
:1006B000892F90E0805C9F4F821B91098F7399274F
:1006C000089585E693E00E94550321E0892B09F403
:1006D00020E0822F089582E094E00E94550321E0FB
:1006E000892B09F420E0822F08958FE994E00E947D
:1006F000550321E0892B09F420E0822F08958CE333
:1007000095E00E94550321E0892B09F420E0822F17
:100710000895FC01A48DA80FB92FB11DA35ABF4F96
:100720002C91848D90E001968F739927848FA689F0
:10073000B7892C93A089B1898C91837080648C9344
:10074000938D848D981306C00288F389E02D8081F3
:100750008F7D80830895EF92FF920F931F93CF9325
:10076000DF93EC0181E0888F9B8D8C8D98131AC0EC
:10077000E889F989808185FF15C09FB7F894EE89D3
:10078000FF896083E889F989808183708064808330
:100790009FBF81E090E0DF91CF911F910F91FF907B
:1007A000EF900895F62E0B8D10E00F5F1F4F0F7323
:1007B0001127E02E8C8D8E110CC00FB607FCFACFDE
:1007C000E889F989808185FFF5CFCE010E948903F0
:1007D000F1CFEB8DEC0FFD2FF11DE35AFF4FF082AF
:1007E0009FB7F8940B8FEA89FB8980818062CFCF15
:1007F000CF93DF93EC01888D8823B9F0AA89BB8958
:10080000E889F9898C9185FD03C0808186FD0DC042
:100810000FB607FCF7CF8C9185FFF2CF808185FF63
:10082000EDCFCE010E948903E9CFDF91CF910895EA
:1008300080E090E0892B29F00E947F0381110E94C3
:10084000000080E090E0892B29F00E94750381115F
:100850000E94000080E090E0892B29F00E946B0349
:1008600081110E94000080E090E0892B29F00E9415
:10087000610381110C9400000895DC015196ED9103
:10088000FC915297908150968C918095892380831A
:100890000895892B81F49091BD028091BC02981734
:1008A00051F0E091BD02F0E0E458FD4F8081082E48
:1008B000000C990B08958FEF9FEF0895892B39F461
:1008C0008FB7F8941092BC021092BD028FBF0895AA
:1008D000EF92FF920F931F93CF93DF93EC018B0165
:1008E00080915D0390915E038230910509F43DC0D3
:1008F000B4F4019721F180915D0390915E03823001
:10090000910509F47DC00CF05EC0019709F473C035
:10091000DF91CF911F910F91FF90EF900895833059
:100920009105D1F1049739F789ED95E00E945E04B5
:1009300061E070E080E090E00E94AC02DCCF8FE9E3
:1009400094E00E94F8032BE1E22E23E0F22E8FE9DF
:1009500094E00E945503892B71F28FE994E00E9484
:100960003303C7010197F1F7F2CF82E094E00E94D0
:10097000F8039BE1E92E93E0F92E82E094E00E94D7
:100980005503892B09F4B7CF82E094E00E9433032A
:10099000C7010197F1F7F1CF85E693E00E94F803D4
:1009A0008BE1E82E83E0F82E85E693E00E94550364
:1009B000892B09F4A0CF85E693E00E943303C70199
:1009C0000197F1F7F1CF83309105F9F0049709F021
:1009D0009FCFA801BE0189ED95E00E94DE0261E093
:1009E00070E080E090E0DF91CF911F910F91FF9038
:1009F000EF900C94AC02A801BE018FE994E0EDCF1A
:100A0000A801BE0182E094E0E8CFA801BE0185E61E
:100A100093E0E3CFCF92DF92EF92FF920F931F9379
:100A2000CF93DF93C7ECD2E02AE030E0398328830C
:100A30009B838A8383E090E09D838C832DE0C22E8C
:100A400023E0D22E25E3F60120833EE0E32E33E0BF
:100A5000F32E21E0F70120830FE013E0F80160831B
:100A60009F838E8363E070E0C6010E94D70199875F
:100A700088879C01209530952E7F33273B872A87D6
:100A80009FEF9C879D87688179816E879A819F8778
:100A90009C81988B898B2A8BF60180818B8BF70147
:100AA00080818C8BF80180818D8B83ED92E0DF91CA
:100AB000CF911F910F91FF90EF90DF90CF900C940A
:100AC0006804892B71F48091BC022091BD0290E0F2
:100AD000805C9F4F821B910960E470E00E94170FB9
:100AE000089590E080E00895892BB9F49091BD02BB
:100AF0008091BC02981789F0E091BD02F0E0E458C3
:100B0000FD4F80812091BD0230E02F5F3F4F2F735A
:100B100033272093BD0290E008958FEF9FEF089553
:100B2000EF92FF920F931F93CF93DF93162F29E03D
:100B300030E03093C8022093C7029093CA0280939A
:100B4000C90284E090E09093CC028093CB028AE3C8
:100B500080930D0382E080930E0382E090E09093F7
:100B6000CE028093CD0262E070E08DE093E00E94BF
:100B7000D7019093D0028093CF029C0120953095AD
:100B80002E7F33273093D2022093D1029FEF909390
:100B9000D3029093D4026091C7027091C80260930F
:100BA000D5029091C9029093D6029091CB02909376
:100BB000D7028093D8022093D90280910D038093AD
:100BC000DA0280910E038093DB0283ED92E00E94B3
:100BD000680461E070E080E090E00E94AC028091E7
:100BE0005D0390915E038230910509F4F5C00CF02D
:100BF0006EC0D0E0C0E05BE9E52E5FE0F52E019726
:100C000009F4B0C08091D50290E09093C80280931F
:100C1000C7028091D60290E09093CA028093C902E5
:100C20008091D70290E09093CC028093CB02809188
:100C3000DA0280930D038091DB0280930E03809192
:100C4000DC0280930F038091DD028093100380917A
:100C5000DE02809311038091DF028093120386E00D
:100C600090E09093CE028093CD0266E070E08DE03C
:100C700093E00E94D7019093D0028093CF029C0111
:100C8000209530952E7F33273093D2022093D102C6
:100C90004091D8024817190609F01EC18091D90267
:100CA0008217130609F018C183E090E0112311F0B8
:100CB00087E090E02091DD0228238091DC02922FD2
:100CC000DF91CF911F910F91FF90EF9008958330A6
:100CD000910509F4C1C0049709F094CFD0E0C0E0B9
:100CE0007BE9E72E7FE0F72E89ED95E00E94610514
:100CF0000D9744F4C530D1052CF42196C701019716
:100D0000F1F7F2CFF12CE12CD0E0C0E089ED95E0D5
:100D10000E9461051816190604F589ED95E00E94F8
:100D20007405082F89ED95E00E9449040F3F11F4E6
:100D30008F3F81F081E0E816F10441F7CD30D10515
:100D40002CF7FE01E953FD4F04872196EE24E3942E
:100D5000F12CDCCFD0E0C0E0F4CF89ED95E00E942B
:100D60005E0450CF8FE994E00E9455030D9744F440
:100D7000C530D1052CF42196C7010197F1F7F2CFC8
:100D8000F12CE12CD0E0C0E08FE994E00E94550303
:100D9000181619060CF036CF8FE994E00E94330341
:100DA000082F8FE994E00E9447030F3F11F48F3F13
:100DB00081F081E0E816F10439F7CD30D10524F750
:100DC000FE01E953FD4F04872196EE24E394F12CB4
:100DD000DBCFD0E0C0E0F4CFD0E0C0E03BE9E32ED1
:100DE0003FE0F32E82E094E00E9455030D9744F417
:100DF000C530D1052CF42196C7010197F1F7F2CF48
:100E0000F12CE12CD0E0C0E082E094E00E94550398
:100E1000181619060CF0F6CE82E094E00E94330317
:100E2000082F82E094E00E9447030F3F11F48F3FA8
:100E300081F081E0E816F10439F7CD30D10524F7CF
:100E4000FE01E953FD4F04872196EE24E394F12C33
:100E5000DBCFD0E0C0E0F4CFD0E0C0E09BE9E92EEA
:100E60009FE0F92E85E693E00E9455030D9744F428
:100E7000C530D1052CF42196C7010197F1F7F2CFC7
:100E8000F12CE12CD0E0C0E085E693E00E94550310
:100E9000181619060CF0B6CE85E693E00E943303CF
:100EA000082F85E693E00E9447030F3F11F48F3F20
:100EB00081F081E0E816F10439F7CD30D10524F74F
:100EC000FE01E953FD4F04872196EE24E394F12CB3
:100ED000DBCFD0E0C0E0F4CF8FEF9FEFF1CE20E08A
:100EE00001972FEF8F3F9207D9F7089590E080E0A8
:100EF0000895DF92EF92FF920F931F93CF93DF93AA
:100F0000EC01898D9A8D892B71F481E090E09B83AF
:100F10008A8390E080E0DF91CF911F910F91FF9045
:100F2000EF90DF900895162FDFB6F8948B8D81FD3A
:100F300029C0CE010E943D04898D9A8D05960E949C
:100F40006F078B8D98E0E92EF12C01E081FF28C01E
:100F5000812F8023F1F0CE010E943D04898D9A8D6E
:100F60000E946F07000F81E0E81AF10889F7CE01AF
:100F70000E943D04DFBE898D9A8D0E946F0781E03B
:100F800090E0C9CFE989FA8980819889892B80838B
:100F9000D3CFE989FA8980819889892B8083DECF34
:100FA000812F8023B1F0E989FA8980819889892B82
:100FB0008083898D9A8D0E946F07000F81E0E81A67
:100FC000F10871F7E989FA8980819889892B8083F2
:100FD000D1CFCE010E943D04ECCFFC010190002056
:100FE000E9F73197AF01481B590BBC018CE395E041
:100FF0000C94DE028F929F92AF92BF920F931F9339
:10100000CF93DF93CDB7DEB7A1970FB6F894DEBFCD
:101010000FBECDBF19A2423008F44AE08E010F5D29
:101020001F4F842E912CB12CA12CA50194010E945C
:101030002B0FE62FB901CA01EA30F4F4E05DD801C4
:10104000EE938D01232B242B252B79F790E080E064
:10105000109719F0CD010E94ED07A1960FB6F894F4
:10106000DEBF0FBECDBFDF91CF911F910F91BF901B
:10107000AF909F908F900895E95CE1CFCF93DF937D
:101080000E94ED07EC0184E292E00E94ED078C0FD4
:101090009D1FDF91CF9108954F925F926F927F9243
:1010A0008F929F92AF92BF92CF92DF92EF92FF9278
:1010B0000F931F93CF936B017C01742EAC019B01A6
:1010C0000E94A011882399F087E292E0CF911F91AE
:1010D0000F91FF90EF90DF90CF90BF90AF909F90D7
:1010E0008F907F906F905F904F900C94ED0746012A
:1010F0005701E894B7F82FEF3FEF4FE75FE7C501DF
:10110000B4010E94A01181110DC02FEF3FEF4FE7F6
:101110005FE7C501B4010E94D60F18161CF48BE2DC
:1011200092E0D4CF2FEF3FEF4FE75FE4C701B60166
:101130000E942E1118161CF48FE292E0C7CF2FEFF9
:101140003FEF4FE75FECC701B6010E94D60F87FD66
:10115000F3CF20E030E0A901C701B6010E94D60F0D
:1011600010E000E087FF0AC06DE28CE395E00E948A
:10117000AB038C01F7FAF094F7F8F094C0E060E06C
:1011800070E080E09FE37C1641F020E030E040E238
:1011900051E40E94DB0FCF5FF6CFA70196010E94BA
:1011A0006A0F2B013C010E944D104B015C014AE08B
:1011B0000E94FA077C01E00EF11ECC23C1F1C501AB
:1011C000B4010E947C109B01AC01C301B2010E94DA
:1011D000690F4B015C016EE28CE395E00E94AB036A
:1011E000E80EF91EC15018F120E030E040E251E471
:1011F000C501B4010E9433112B013C010E944D1026
:101200004B01B12CA12C4AE0C501B4010E94FA07A0
:10121000E80EF91EC501B4010E947C109B01AC01CF
:10122000C301B2010E94690F4B015C01DBCFC70112
:10123000CF911F910F91FF90EF90DF90CF90BF90D3
:10124000AF909F908F907F906F905F904F90089598
:101250001F920F920FB60F9211242F933F938F93EB
:101260009F93AF93BF938091BF029091C002A091D2
:10127000C102B091C2023091BE0223E0230F2D378C
:1012800058F50196A11DB11D2093BE028093BF02A7
:101290009093C002A093C102B093C2028091C30296
:1012A0009091C402A091C502B091C6020196A11D01
:1012B000B11D8093C3029093C402A093C502B09362
:1012C000C602BF91AF919F918F913F912F910F9047
:1012D0000FBE0F901F90189526E8230F0296A11DB0
:1012E000B11DD2CF1F920F920FB60F9211240BB6E1
:1012F0000F922F933F934F935F936F937F938F93AF
:101300009F93AF93BF93EF93FF9385E693E00E9483
:101310008903FF91EF91BF91AF919F918F917F9141
:101320006F915F914F913F912F910F900BBE0F9056
:101330000FBE0F901F9018951F920F920FB60F922D
:1013400011240BB60F922F933F934F935F936F939C
:101350007F938F939F93AF93BF93EF93FF9385E614
:1013600093E00E940B03FF91EF91BF91AF919F918A
:101370008F917F916F915F914F913F912F910F903E
:101380000BBE0F900FBE0F901F9018951F920F92DB
:101390000FB60F9211240BB60F922F933F934F93DA
:1013A0005F936F937F938F939F93AF93BF93EF93CD
:1013B000FF9382E094E00E948903FF91EF91BF9137
:1013C000AF919F918F917F916F915F914F913F91DD
:1013D0002F910F900BBE0F900FBE0F901F9018957E
:1013E0001F920F920FB60F9211240BB60F922F93EC
:1013F0003F934F935F936F937F938F939F93AF939D
:10140000BF93EF93FF9382E094E00E940B03FF9160
:10141000EF91BF91AF919F918F917F916F915F916C
:101420004F913F912F910F900BBE0F900FBE0F90D9
:101430001F9018951F920F920FB60F9211240BB6A2
:101440000F922F933F934F935F936F937F938F935D
:101450009F93AF93BF93EF93FF938FE994E00E9424
:101460008903FF91EF91BF91AF919F918F917F91F0
:101470006F915F914F913F912F910F900BBE0F9005
:101480000FBE0F901F9018951F920F920FB60F92DC
:1014900011240BB60F922F933F934F935F936F934B
:1014A0007F938F939F93AF93BF93EF93FF938FE9B6
:1014B00094E00E940B03FF91EF91BF91AF919F9138
:1014C0008F917F916F915F914F913F912F910F90ED
:1014D0000BBE0F900FBE0F901F9018951F920F928A
:1014E0000FB60F9211240BB60F922F933F934F9389
:1014F0005F936F937F938F939F93AF93BF93EF937C
:10150000FF938CE395E00E948903FF91EF91BF91D7
:10151000AF919F918F917F916F915F914F913F918B
:101520002F910F900BBE0F900FBE0F901F9018952C
:101530001F920F920FB60F9211240BB60F922F939A
:101540003F934F935F936F937F938F939F93AF934B
:10155000BF93EF93FF938CE395E00E940B03FF9101
:10156000EF91BF91AF919F918F917F916F915F911B
:101570004F913F912F910F900BBE0F900FBE0F9088
:101580001F9018951F920F920FB60F9211240F9073
:101590000FBE0F901F9018951F920F920FB60F92CB
:1015A00011240F900FBE0F901F9018951F920F924D
:1015B0000FB60F9211240F900FBE0F901F90189529
:1015C0000F931F93CF93DF931092680310926703DA
:1015D00088EE93E0A0E0B0E08093690390936A0303
:1015E000A0936B03B0936C0324E032E03093660366
:1015F0002093650345E351E05093720340937103D8
:1016000044E351E0509374034093730340E351E08B
:10161000509376034093750341E351E05093780370
:101620004093770342E351E050937A034093790368
:1016300046E351E050937C0340937B0310927E037A
:1016400010927F0310928003109281031092050480
:10165000109204048093060490930704A093080456
:10166000B0930904309303042093020445ED50E045
:1016700050930F0440930E0444ED50E05093110436
:101680004093100440ED50E0509313044093120433
:1016900041ED50E0509315044093140442ED50E0A6
:1016A000509317044093160446ED50E050931904EC
:1016B0004093180410921B0410921C0410921D04F5
:1016C00010921E041092A2041092A1048093A3040D
:1016D0009093A404A093A504B093A6043093A0040F
:1016E00020939F044DEC50E05093AC044093AB0426
:1016F0004CEC50E05093AE044093AD0448EC50E005
:101700005093B0044093AF0449EC50E05093B204BE
:101710004093B1044AEC50E05093B4044093B304B6
:101720004EEC50E05093B6044093B5041092B804C8
:101730001092B9041092BA041092BB0410923F05A3
:1017400010923E058093400590934105A093420579
:10175000B093430530933D0520933C0525EC30E0E4
:10176000309349052093480524EC30E030934B0535
:1017700020934A0520EC30E030934D0520934C0532
:1017800021EC30E030934F0520934E0522EC30E001
:10179000309351052093500526EC30E030935305EB
:1017A0002093520510925505109256051092570538
:1017B000109258051092DC051092DB058093DD0530
:1017C0009093DE05A093DF05B093E00586E192E0FB
:1017D0009093DA058093D9051092ED051092EC05EF
:1017E0001092EF051092EE051092F1051092F0059F
:1017F0001092F3051092F2058091F4058E7F8D7F93
:101800008093F4050FE312E0F8012491C9EFD1E0D1
:10181000FE018491882399F090E0880F991FFC01C4
:10182000EC53FE4FA591B491FC01E252FE4F85911D
:1018300094918FB7F8949C91292B2C938FBF81E0C2
:101840000E940002F80104910093E905FE01C49191
:10185000EC2FF0E0EE0FFF1FE252FE4F85919491C6
:101860009093EB058093EA050EE312E0F8012491D2
:10187000C8EFD1E0FE0184918823C9F090E0880F81
:10188000991FFC01EC53FE4FA591B491FC01E2526B
:10189000FE4F459154913FB7F8949C91822F8095CB
:1018A00098239C93FA019081892380833FBF809184
:1018B000F40581FD03C080E00E9400021092E5055E
:1018C000F80104910093E605FE01C491EC2FF0E0CD
:1018D000EE0FFF1FE655FE4F859194919093E8051A
:1018E0008093E705DF91CF911F910F910895789430
:1018F00084B5826084BD84B5816084BD85B5826015
:1019000085BD85B5816085BD80916E0081608093C5
:101910006E0010928100809181008260809381002E
:10192000809181008160809381008091800081603E
:10193000809380008091B10084608093B100809199
:10194000B00081608093B0008091910082608093AC
:10195000910080919100816080939100809190002E
:101960008160809390008091A10082608093A100AB
:101970008091A10081608093A1008091A00081608E
:101980008093A00080912101826080932101809149
:1019900021018160809321018091200181608093E9
:1019A000200180917A00846080937A0080917A008F
:1019B000826080937A0080917A00816080937A00BF
:1019C00080917A00806880937A001092C10060ED67
:1019D00077E080E090E00E94AC0240E052EC61E0F1
:1019E00070E08CE395E00E94770183E392E00E942F
:1019F0003E0840E052EC61E070E08FE994E00E9424
:101A0000770181E090E090935E0380935D0387E02F
:101A100090E09093C8028093C7028EEFE82EF12CDD
:101A2000F092CA02E092C90289E090E09093CC0261
:101A30008093CB0280EF90E09093D0028093CF020E
:101A40008EE090E09093D2028093D102CFEFC093CA
:101A5000D302C093D40287E08093D5028EEF8093A7
:101A6000D60289E08093D70280EF8093D8028EE07F
:101A70008093D90267E070E083ED92E00E946804F1
:101A800064EF71E080E090E00E94AC02109260038D
:101A900010925F031092CE021092CD0264E670E0C5
:101AA00080E090E00E94AC028BE090E09093C8024E
:101AB0008093C702F092CA02E092C90203E010E0EC
:101AC0001093CC020093CB0280E380930D0382E05D
:101AD00080930E0310920F031092100384E090E0A5
:101AE0009093CE028093CD0264E070E08DE093E0AD
:101AF0000E94D7019093D0028093CF029C01209541
:101B000030952E7F33273093D2022093D102C09399
:101B1000D302C093D4026091C7027091C80260934F
:101B2000D5029091C9029093D6029091CB029093E6
:101B3000D7028093D8022093D90280910D0380931D
:101B4000DA0280910E038093DB0280910F03809371
:101B5000DC02809110038093DD0283ED92E00E940D
:101B600068046AE070E080E090E00E94AC029AE0D5
:101B7000C92ED12CD092C802C092C702F092CA02DC
:101B8000E092C9021093CC020093CB0224E3B22E60
:101B9000B0920D03D1E0D0930E03D0930F031093B6
:101BA000CE020093CD0263E070E08DE093E00E94EE
:101BB000D7019093D0028093CF029C01209530955D
:101BC0002E7F33273093D2022093D102C093D302C9
:101BD000C093D4026091C7027091C8026093D5028D
:101BE0009091C9029093D6029091CB029093D70224
:101BF0008093D8022093D90280910D038093DA025A
:101C000080910E038093DB0280910F038093DC02AE
:101C100083ED92E00E9468046AE070E080E090E06A
:101C20000E94AC02D092C802C092C702F092CA02CF
:101C3000E092C9021093CC020093CB02B0920D0344
:101C4000D0930E0380E680930F031093CE0200938F
:101C5000CD0263E070E08DE093E00E94D7019093A5
:101C6000D0028093CF029C01209530952E7F3327A0
:101C70003093D2022093D102C093D302C093D402F6
:101C80006091C7027091C8026093D5029091C90219
:101C90009093D6029091CB029093D7028093D80272
:101CA0002093D90280910D038093DA0280910E0374
:101CB0008093DB0280910F038093DC0283ED92E03E
:101CC0000E9468046AE070E080E090E00E94AC024C
:101CD00068EC70E080E090E00E94AC0289E392E062
:101CE0000E943E0862E070E08EEF90E00E940A05DC
:101CF00060EB74E080E090E00E94AC0282E592E04C
:101D00000E94ED0760E08EEF90E00E9490059250F7
:101D1000BC01990F880B990B0E947E1026E636E6CF
:101D200046EA5EE30E94331142E00E944C0884E2DE
:101D300092E00E94ED0783E692E00E943E0870E088
:101D400060E08EEF90E00E940A0560EB74E080E0B6
:101D500090E00E94AC0282E592E00E94ED0760E014
:101D60008EEF90E00E9490059250BC01990F880B75
:101D7000990B0E947E1026E636E646EA5EE30E9454
:101D8000331142E00E944C0884E292E00E94ED0789
:101D90000E941804A3CF86E192E09093DA05809325
:101DA000D9052091E50546EF420F443058F08EECFE
:101DB000820F843038F082EC820FEDE6F0E088305C
:101DC00018F00895EBE6F0E03081822F8650990BF1
:101DD000443080F087EF2233A9F08BEF233391F06A
:101DE0008DEF243379F082EC820F8830D0F4822F8B
:101DF0008E53990BBC0181E090E001C0880F6A9579
:101E0000EAF780958323443070F09EEC920F943073
:101E100050F02E53F0E0E0E0283038F4EDE6F0E04A
:101E200004C08EEFEFCFEBE6F0E08083CACF97FBE4
:101E3000072E16F4009407D077FD09D00E94550FA5
:101E400007FC05D03EF4909581959F4F08957095BD
:101E500061957F4F0895A1E21A2EAA1BBB1BFD01BD
:101E60000DC0AA1FBB1FEE1FFF1FA217B307E40779
:101E7000F50720F0A21BB30BE40BF50B661F771FD1
:101E8000881F991F1A9469F76095709580959095B1
:101E90009B01AC01BD01CF010895EE0FFF1F881F0C
:101EA0008BBF0790F691E02D1994AA1BBB1B51E143
:101EB00007C0AA1FBB1FA617B70710F0A61BB70BBA
:101EC000881F991F5A95A9F780959095BC01CD015F
:101ED00008955058BB27AA270E94810F0C94F41034
:101EE0000E94E61038F00E94ED1020F039F49F3F78
:101EF00019F426F40C94E3100EF4E095E7FB0C942F
:101F0000DD10E92F0E94051158F3BA176207730715
:101F10008407950720F079F4A6F50C9427110EF4A8
:101F2000E0950B2EBA2FA02D0B01B90190010C01E9
:101F3000CA01A0011124FF27591B99F0593F50F401
:101F4000503E68F11A16F040A22F232F342F442759
:101F5000585FF3CF469537952795A795F040539551
:101F6000C9F77EF41F16BA0B620B730B840BBAF021
:101F70009150A1F0FF0FBB1F661F771F881FC2F78C
:101F80000EC0BA0F621F731F841F48F487957795A0
:101F90006795B795F7959E3F08F0B0CF9395880F5A
:101FA00008F09927EE0F9795879508950E94B9102C
:101FB00008F481E008950E94EF0F0C94F4100E9441
:101FC000ED1058F00E94E61040F029F45F3F29F030
:101FD0000C94DD1051110C9428110C94E3100E9404
:101FE000051168F39923B1F3552391F3951B550B14
:101FF000BB27AA2762177307840738F09F5F5F4FDC
:10200000220F331F441FAA1FA9F335D00E2E3AF01A
:10201000E0E832D091505040E695001CCAF72BD032
:10202000FE2F29D0660F771F881FBB1F2617370783
:102030004807AB07B0E809F0BB0B802DBF01FF27B5
:1020400093585F4F3AF09E3F510578F00C94DD10A5
:102050000C9428115F3FE4F3983ED4F3869577956E
:102060006795B795F7959F5FC9F7880F911D96956E
:10207000879597F90895E1E0660F771F881FBB1FCA
:10208000621773078407BA0720F0621B730B840B77
:10209000BA0BEE1F88F7E09508950E940D1188F0A5
:1020A0009F5798F0B92F9927B751B0F0E1F0660F1C
:1020B000771F881F991F1AF0BA95C9F714C0B1305D
:1020C00091F00E942711B1E008950C942711672F19
:1020D000782F8827B85F39F0B93FCCF3869577958C
:1020E0006795B395D9F73EF4909580957095619575
:1020F0007F4F8F4F9F4F0895E89409C097FB3EF4A0
:1021000090958095709561957F4F8F4F9F4F992344
:10211000A9F0F92F96E9BB279395F69587957795C2
:102120006795B795F111F8CFFAF4BB0F11F460FF82
:102130001BC06F5F7F4F8F4F9F4F16C0882311F0DA
:1021400096E911C0772321F09EE8872F762F05C0EE
:10215000662371F096E8862F70E060E02AF09A9589
:10216000660F771F881FDAF7880F9695879597F97E
:102170000895990F0008550FAA0BE0E8FEEF161618
:102180001706E807F907C0F012161306E407F5076B
:1021900098F0621B730B840B950B39F40A2661F0DF
:1021A000232B242B252B21F408950A2609F4A14082
:1021B000A6958FEF811D811D089597F99F6780E88F
:1021C00070E060E008959FEF80EC089500240A9489
:1021D0001616170618060906089500240A94121602
:1021E0001306140605060895092E0394000C11F435
:1021F000882352F0BB0F40F4BF2B11F460FF04C0E2
:102200006F5F7F4F8F4F9F4F089557FD9058440F3A
:10221000551F59F05F3F71F04795880F97FB991F45
:1022200061F09F3F79F08795089512161306140602
:10223000551FF2CF4695F1DF08C01616170618068F
:10224000991FF1CF86957105610508940895E8946A
:10225000BB2766277727CB0197F908950E94B9100D
:1022600008F48FEF08950E9446110C94F4100E9418
:10227000E61038F00E94ED1020F0952311F00C9438
:10228000DD100C94E31011240C9428110E94051108
:1022900070F3959FC1F3950F50E0551F629FF001B9
:1022A000729FBB27F00DB11D639FAA27F00DB11DD2
:1022B000AA1F649F6627B00DA11D661F829F22275B
:1022C000B00DA11D621F739FB00DA11D621F839FE2
:1022D000A00D611D221F749F3327A00D611D231FB8
:1022E000849F600D211D822F762F6A2F11249F5706
:1022F00050409AF0F1F088234AF0EE0FFF1FBB1F09
:10230000661F771F881F91505040A9F79E3F5105C7
:1023100080F00C94DD100C9428115F3FE4F3983E9C
:10232000D4F3869577956795B795F795E7959F5F71
:10233000C1F7FE2B880F911D9695879597F9089503
:102340000E94B910880B990B089511E0C3E4D1E005
:1023500000E006C0802FFE010E944D0F2196011D56
:0E236000C434D10780E00807A9F7F894FFCF36
:10236E0000000000AB03DE022403F8035503330321
:10237E004703000000007907DE0276075E04610560
:10238E00740549040D0A006E616E00696E66006F79
:10239E00766600426567696E004D6F766520416E08
:1023AE00676C653A202D3130302064656772656543
:1023BE00730047657420736572766F20416E676C8B
:1023CE00653A004D6F766520416E676C653A203137
:0C23DE0030302064656772656573000094
:00000001FF
