:100000000C9444010C9475010C9475010C947501C9
:100010000C9475010C9475010C9475010C94750188
:100020000C9475010C94C40A0C94D80A0C94CE0A52
:100030000C9475010C9475010C9475010C94750168
:100040000C9475010C9475010C9475010C94750158
:100050000C9475010C9475010C9475010C942A098B
:100060000C9475010C949A0A0C94700A0C94750106
:100070000C9475010C9475010C9475010C94750128
:100080000C9475010C9475010C9475010C94750118
:100090000C94460A0C941C0A0C9475010C9475017E
:1000A0000C9475010C9475010C9475010C947501F8
:1000B0000C9475010C9475010C9475010C947501E8
:1000C0000C9475010C9475010C9475010C94F20953
:1000D0000C94C8090C9475010C949E090C94740935
:1000E0000C9475010C9463050C9459020C946302F2
:1000F0000C9447030C9433030C9424030C94F803DE
:100100000C947F020C9471020C9435020C945302EF
:100110000C94E20A0C94A90B0C9467020C947902DB
:100120000C9483020C94AB030C9459070C94760541
:100130000C946B020C94DE020C9475020C94550323
:100140000C9449040C945D020C9430020C9444020B
:100150000C945C070C9450020C945E040C944802BE
:100160000C944C0200000A0B02090C0D0E08070348
:10017000040100000000000000000000000000007A
:10018000000000000000000000000000000000006F
:10019000121110000000000000000000000000002C
:1001A000000000000000000000000000200023000C
:1001B000260029002C002F0032000001000003015E
:1001C0000601090100002100240027002A002D005B
:1001D0003000330001010000040107010A010000A2
:1001E0002200250028002B002E00310034000201DF
:1001F0000000050108010B010505050507050808B4
:100200000808020202020A0A0808040404040101A0
:1002100001010101010103030303030303030407B5
:1002200007070C0C0C0C0C0C0C0C0202020206064C
:100230000606060606060B0B0B0B0B0B0B0B01023F
:1002400010202008081020401020408002010201E8
:1002500008040201010204081020408080402010A0
:1002600008040201800402018040201008040201F9
:100270000804020101020408102040800102040861
:1002800010204080A90BE20A11241FBECFEFD1E25B
:10029000DEBFCDBF00E00CBF2BE0AEEEB5E001C08D
:1002A0001D92AB31B207E1F715E0A0E0B2E0E4E95E
:1002B000FBE200E00BBF02C007900D92AE3EB1071B
:1002C000D9F711E0C3E4D1E000E006C021970109AD
:1002D000802FFE010E945013C234D10780E008072E
:1002E000A9F70E94830E0C94B8150C940000CF92CD
:1002F000DF92EF92FF92CF93DF93EC016A017B01D3
:10030000E889F98982E08083C11481EED806E1048E
:10031000F104A1F060E079E08DE390E0A70196019F
:100320000E942E13215031094109510956954795D4
:1003300037952795211580E1380798F0E889F989E4
:10034000108260E874E88EE190E0A70196010E94B7
:100350002E1321503109410951095695479537957A
:100360002795EC85FD853083EE85FF852083188EEB
:10037000EC89FD8986E08083EA89FB898081806140
:100380008083EA89FB89808188608083EA89FB8990
:10039000808180688083EA89FB8980818F7D80836A
:1003A000DF91CF91FF90EF90DF90CF900895209153
:1003B000390630913A0640913B0650913C0624277D
:1003C000352740913D0650913E062427352730932E
:1003D000D4062093D306680F791FFC014191CF0109
:1003E0002091D3063091D40624273093D40620934D
:1003F000D3066E177F0789F7C9018E7F9927089565
:10040000282F30E0F901EC59FE4F9491F901E25C9C
:10041000FD4F449128503E4FF9012491222309F4C5
:1004200032C0992311F191509231F8F4E92FF0E0A4
:100430008827E25EFD4F8F4F0C9450134C02500200
:100440003002440248023502530259025D0263023F
:1004500067026B0271027502350279027F02830224
:10046000809180008F7780938000E22FF0E0EE0F84
:10047000FF1FE252FE4FA591B4918FB7F894EC9113
:100480004E2B4C938FBF0895809180008F7DEBCFD2
:1004900080918000877FE7CF84B58F7784BDE5CFDB
:1004A00084B58F7DFBCF8091B0008F778093B000B3
:1004B000DCCF8091B0008F7DF9CF809190008F7755
:1004C00080939000D2CF809190008F7DF9CF809162
:1004D0009000877FF5CF8091A0008F778093A00058
:1004E000C4CF8091A0008F7DF9CF8091A000877F3D
:1004F000F5CF809120018F7780932001B6CF809136
:1005000020018F7DF9CF80912001877FF5CF3FB704
:10051000F8948091350690913606A0913706B091F7
:10052000380626B5A89B05C02F3F19F00196A11DDE
:10053000B11D3FBFBA2FA92F982F8827BC01CD012D
:10054000620F711D811D911D42E0660F771F881F8C
:10055000991F4A95D1F708958F929F92AF92BF92BB
:10056000CF92DF92EF92FF924B015C010E948702D3
:100570006B017C010E9487026C197D098E099F091D
:10058000683E734081059105A8F321E0821A910825
:10059000A108B10888EEC80E83E0D81EE11CF11C4A
:1005A00081149104A104B10429F7FF90EF90DF902A
:1005B000CF90BF90AF909F908F900895AF92BF92D1
:1005C000CF92DF92EF92FF920F931F93CF93DF931F
:1005D0006C017B018B01040F151FEB015E01AE184E
:1005E000BF08C017D10759F06991D601ED91FC9170
:1005F0000190F081E02DC6011995892B79F7C5018D
:10060000DF91CF911F910F91FF90EF90DF90CF90EE
:10061000BF90AF900895FC01A089B1898C91A68903
:10062000B78982FD0FC09C91818D8F5F8F73228D62
:10063000821749F0A18DAE0FBF2FB11D5D969C931F
:10064000818F08958C910895FC01538D448D252F41
:1006500030E0842F90E0821B930B541710F0CF965C
:10066000089501970895FC01918D828D981761F08E
:10067000A28DAE0FBF2FB11D5D968C91928D9F5FA5
:100680009F73928F90E008958FEF9FEF0895FC0184
:10069000918D828D981731F0828DE80FF11D858D37
:1006A00090E008958FEF9FEF0895FC01918D228DCA
:1006B000892F90E0805C9F4F821B91098F7399274F
:1006C000089587ED96E00E94550321E0892B09F4F7
:1006D00020E0822F089584E797E00E94550321E0EF
:1006E000892B09F420E0822F089581E198E00E948F
:1006F000550321E0892B09F420E0822F08958EEA2A
:1007000098E00E94550321E0892B09F420E0822F14
:100710000895FC01A48DA80FB92FB11DA35ABF4F96
:100720002C91848D90E001968F739927848FA689F0
:10073000B7892C93A089B1898C91837080648C9344
:10074000938D848D981306C00288F389E02D8081F3
:100750008F7D80830895EF92FF920F931F93CF9325
:10076000DF93EC0181E0888F9B8D8C8D98131AC0EC
:10077000E889F989808185FF15C09FB7F894EE89D3
:10078000FF896083E889F989808183708064808330
:100790009FBF81E090E0DF91CF911F910F91FF907B
:1007A000EF900895F62E0B8D10E00F5F1F4F0F7323
:1007B0001127E02E8C8D8E110CC00FB607FCFACFDE
:1007C000E889F989808185FFF5CFCE010E948903F0
:1007D000F1CFEB8DEC0FFD2FF11DE35AFF4FF082AF
:1007E0009FB7F8940B8FEA89FB8980818062CFCF15
:1007F000CF93DF93EC01888D8823B9F0AA89BB8958
:10080000E889F9898C9185FD03C0808186FD0DC042
:100810000FB607FCF7CF8C9185FFF2CF808185FF63
:10082000EDCFCE010E948903E9CFDF91CF910895EA
:1008300080E090E0892B29F00E947F0381110E94C3
:10084000000080E090E0892B29F00E94750381115F
:100850000E94000080E090E0892B29F00E946B0349
:1008600081110E94000080E090E0892B29F00E9415
:10087000610381110C9400000895DC015196ED9103
:10088000FC915297908150968C918095892380831A
:100890000895892B81F490912F0680912E06981748
:1008A00051F0E0912F06F0E0E251FA4F8081082EDE
:1008B000000C990B08958FEF9FEF0895892B39F461
:1008C0008FB7F89410922E0610922F068FBF0895BE
:1008D000EF92FF920F931F93CF93DF93EC018B0165
:1008E0008091CF069091D0068230910509F43DC0E9
:1008F000B4F4019721F18091CF069091D006823017
:10090000910509F47DC00CF05EC0019709F473C035
:10091000DF91CF911F910F91FF90EF900895833059
:100920009105D1F1049739F78BEF9AE00E945E04AC
:1009300061E070E080E090E00E94AC02DCCF81E1F9
:1009400098E00E94F8032BE1E22E23E0F22E81E1F1
:1009500098E00E945503892B71F281E198E00E9492
:100960003303C7010197F1F7F2CF84E797E00E94C4
:10097000F8039BE1E92E93E0F92E84E797E00E94CB
:100980005503892B09F4B7CF84E797E00E9433031E
:10099000C7010197F1F7F1CF87ED96E00E94F803C8
:1009A0008BE1E82E83E0F82E87ED96E00E94550358
:1009B000892B09F4A0CF87ED96E00E943303C7018D
:1009C0000197F1F7F1CF83309105F9F0049709F021
:1009D0009FCFA801BE018BEF9AE00E94DE0261E08A
:1009E00070E080E090E0DF91CF911F910F91FF9038
:1009F000EF900C94AC02A801BE0181E198E0EDCF2C
:100A0000A801BE0184E797E0E8CFA801BE0187ED09
:100A100096E0E3CFCF92DF92EF92FF920F931F9376
:100A2000CF93DF93C9E3D6E08AE090E0998388838F
:100A30008EEF90E09B838A8383E090E09D838C839C
:100A40002FE7C22E26E0D22E24E3F601208330E8E1
:100A5000E32E36E0F32E21E0F701208301E816E0D3
:100A6000F80110829F838E8363E070E0C6010E94CC
:100A7000D701998788879C01209530952E7F332751
:100A80003B872A879FEF9C879D87688179816E8746
:100A90009A819F879C81988B898B2A8BF601808114
:100AA0008B8BF70180818C8BF80180818D8B85E4A5
:100AB00096E0DF91CF911F910F91FF90EF90DF9023
:100AC000CF900C946804892B71F480912E062091AC
:100AD0002F0690E0805C9F4F821B910960E470E0DC
:100AE0000E941A13089590E080E00895892BB9F4CC
:100AF00090912F0680912E06981789F0E0912F068D
:100B0000F0E0E251FA4F808120912F0630E02F5F14
:100B10003F4F2F73332720932F0690E008958FEFD8
:100B20009FEF0895DF92EF92FF920F931F93CF9361
:100B3000DF93EC018091CF069091D0068230910531
:100B400009F4A4C08CF410E000E05BE9E52E5FE05E
:100B5000F52E019709F45CC0DF91CF911F910F91A1
:100B6000FF90EF90DF9008958330910509F4D2C093
:100B7000049791F710E000E07BE9E72E7FE0F72E85
:100B80008BEF9AE00E9463058C179D074CF40530AB
:100B9000110534F40F5F1F4FC7010197F1F7F0CF34
:100BA000F12CE12C10E000E08BEF9AE00E9463054D
:100BB0001816190614F58BEF9AE00E947605D82EC8
:100BC0008BEF9AE00E9449049FEFD91202C08F3F39
:100BD00089F081E0E816F10439F70C171D0724F7B6
:100BE000F801E75CF94FD4860F5F1F4FEE24E394C2
:100BF000F12CDACF10E000E0F3CF8BEF9AE0DF9139
:100C0000CF911F910F91FF90EF90DF900C945E04B5
:100C100081E198E00E9455038C179D074CF4053044
:100C2000110534F40F5F1F4FC7010197F1F7F0CFA3
:100C3000F12CE12C10E000E081E198E00E945503E6
:100C4000181619060CF088CF81E198E00E94330352
:100C5000D82E81E198E00E9447039FEFD91202C08D
:100C60008F3F89F081E0E816F10431F70C171D077A
:100C70001CF7F801E75CF94FD4860F5F1F4FEE2495
:100C8000E394F12CD9CF10E000E0F3CF10E000E0C6
:100C90003BE9E32E3FE0F32E84E797E00E94550303
:100CA0008C179D074CF40530110534F40F5F1F4F6E
:100CB000C7010197F1F7F0CFF12CE12C10E000E033
:100CC00084E797E00E945503181619060CF044CFEC
:100CD00084E797E00E943303D82E84E797E00E94D0
:100CE00047039FEFD91202C08F3F89F081E0E816D9
:100CF000F10431F70C171D071CF7F801E75CF94FF9
:100D0000D4860F5F1F4FEE24E394F12CD9CF10E06F
:100D100000E0F3CF10E000E09BE9E92E9FE0F92E20
:100D200087ED96E00E9455038C179D074CF4053023
:100D3000110534F40F5F1F4FC7010197F1F7F0CF92
:100D4000F12CE12C10E000E087ED96E00E945503C5
:100D5000181619060CF000CF87ED96E00E943303B9
:100D6000D82E87ED96E00E9447039FEFD91202C06C
:100D70008F3F89F081E0E816F10431F70C171D0769
:100D80001CF7F801E75CF94FD4860F5F1F4FEE2484
:100D9000E394F12CD9CF10E000E0F3CF27E030E06E
:100DA00030933A062093390690933C0680933B0695
:100DB00030933E0620933D06AC014E7F552750935D
:100DC0004206409341069C01209530952E7F3327A3
:100DD00030934406209343069FEF909345069093EB
:100DE000460697E0909347068093480690934906FD
:100DF00040934A0620934B0667E070E085E496E056
:100E00000E94680462E070E080E090E00E94AC0222
:100E100089E090E00E94920590914706292F30E0EA
:100E200030933A062093390620914806422F50E02D
:100E300050933C0640933B0640914906642F70E076
:100E400070933E0660933D0680914C0680937F062A
:100E500030914D063093800662E070E0709340065A
:100E600060933F062927242728272327422F4E7FD8
:100E700050E0509342064093410620952E7F30E08B
:100E8000309344062093430690914A069417150622
:100E900039F490914B069217130609F08EEF0895DE
:100EA0008FEF089520E001972FEF8F3F9207D9F73A
:100EB000089590E080E00895DF92EF92FF920F9303
:100EC0001F93CF93DF93EC01898D9A8D892B71F459
:100ED00081E090E09B838A8390E080E0DF91CF9176
:100EE0001F910F91FF90EF90DF900895162FDFB6BE
:100EF000F8948B8D81FD29C0CE010E943D04898D1F
:100F00009A8D05960E9452078B8D98E0E92EF12C60
:100F100001E081FF28C0812F8023F1F0CE010E94E3
:100F20003D04898D9A8D0E945207000F81E0E81AD6
:100F3000F10889F7CE010E943D04DFBE898D9A8DAC
:100F40000E94520781E090E0C9CFE989FA89808147
:100F50009889892B8083D3CFE989FA898081988900
:100F6000892B8083DECF812F8023B1F0E989FA8934
:100F700080819889892B8083898D9A8D0E94520760
:100F8000000F81E0E81AF10871F7E989FA89808198
:100F90009889892B8083D1CFCE010E943D04ECCF6C
:100FA000FC0101900020E9F73197AF01481B590B74
:100FB000BC018EEA98E00C94DE028F929F92AF9271
:100FC000BF920F931F93CF93DF93CDB7DEB7A19757
:100FD0000FB6F894DEBF0FBECDBF19A2423008F4A1
:100FE0004AE08E010F5D1F4F842E912CB12CA12C55
:100FF000A50194010E942E13E62FB901CA01EA301F
:10100000F4F4E05DD801EE938D01232B242B252BE6
:1010100079F790E080E0109719F0CD010E94D00799
:10102000A1960FB6F894DEBF0FBECDBFDF91CF9172
:101030001F910F91BF90AF909F908F900895E95CA2
:10104000E1CFCF92DF92EF92FF92CF93DF9397FFA2
:101050001BC06B017C016DE28EEA98E00E94AB033D
:10106000EC0166277727CB016C197D098E099F0952
:101070004AE00E94DD078C0F9D1FDF91CF91FF900A
:10108000EF90DF90CF9008954AE0DF91CF91FF90ED
:10109000EF90DF90CF900C94DD07CF93DF930E9409
:1010A000D007EC018AED93E00E94D0078C0F9D1FC2
:1010B000DF91CF9108950F931F93CF93DF93EC01AE
:1010C00088819981009759F02A813B81261737073B
:1010D00030F081E0DF91CF911F910F9108958B0146
:1010E0006F5F7F4F0E94C714009759F099838883E0
:1010F0001B830A832C813D81232B59F7FC0110822D
:10110000E8CF80E0E7CFFC0180819181009711F06A
:101110000C943E140895EF92FF920F931F93CF9378
:10112000DF93EC01DB018D919C911197998388836A
:1011300012968D919C9113979B838A8314968D911F
:101140009C9115979D838C8316968D919C911797F2
:101150009F838E8318968D919C9119979987888784
:10116000CE010A961B861A861D861C861F861E8641
:101170009B01265F3F4F82179307E9F01A960D9166
:101180001C911B9701151105B1F01E96ED90FC9076
:10119000B7010E945B082A853B85811113C0211588
:1011A000310519F0C9010E943E141B861A861F865C
:1011B0001E861D861C86DF91CF911F910F91FF9097
:1011C000EF900895FF86EE86B801C901DF91CF91B7
:1011D0001F910F91FF90EF900C94B115EF92FF9239
:1011E0000F931F93CF93DF93EC017B011982188239
:1011F0001B821A821D821C82FB0101900020E9F7EC
:1012000031978F01061B170BB8010E945B082881DC
:101210003981811113C02115310519F0C9010E94CE
:101220003E14198218821D821C821B821A82DF9151
:10123000CF911F910F91FF90EF9008951D830C8324
:10124000B701C901DF91CF911F910F91FF90EF90EE
:101250000C94B1151F920F920FB60F9211242F9379
:101260003F938F939F93AF93BF938091310690915B
:101270003206A0913306B09134063091300623E057
:10128000230F2D3758F50196A11DB11D209330066F
:101290008093310690933206A0933306B0933406C0
:1012A0008091350690913606A0913706B0913806A8
:1012B0000196A11DB11D8093350690933606A0932B
:1012C0003706B0933806BF91AF919F918F913F91B0
:1012D0002F910F900FBE0F901F90189526E8230FA7
:1012E0000296A11DB11DD2CF1F920F920FB60F9281
:1012F00011240BB60F922F933F934F935F936F93ED
:101300007F938F939F93AF93BF93EF93FF9387ED5B
:1013100096E00E948903FF91EF91BF91AF919F9159
:101320008F917F916F915F914F913F912F910F908E
:101330000BBE0F900FBE0F901F9018951F920F922B
:101340000FB60F9211240BB60F922F933F934F932A
:101350005F936F937F938F939F93AF93BF93EF931D
:10136000FF9387ED96E00E940B03FF91EF91BF91F1
:10137000AF919F918F917F916F915F914F913F912D
:101380002F910F900BBE0F900FBE0F901F901895CE
:101390001F920F920FB60F9211240BB60F922F933C
:1013A0003F934F935F936F937F938F939F93AF93ED
:1013B000BF93EF93FF9384E797E00E948903FF9127
:1013C000EF91BF91AF919F918F917F916F915F91BD
:1013D0004F913F912F910F900BBE0F900FBE0F902A
:1013E0001F9018951F920F920FB60F9211240BB6F3
:1013F0000F922F933F934F935F936F937F938F93AE
:101400009F93AF93BF93EF93FF9384E797E00E947E
:101410000B03FF91EF91BF91AF919F918F917F91BE
:101420006F915F914F913F912F910F900BBE0F9055
:101430000FBE0F901F9018951F920F920FB60F922C
:1014400011240BB60F922F933F934F935F936F939B
:101450007F938F939F93AF93BF93EF93FF9381E11C
:1014600098E00E948903FF91EF91BF91AF919F9106
:101470008F917F916F915F914F913F912F910F903D
:101480000BBE0F900FBE0F901F9018951F920F92DA
:101490000FB60F9211240BB60F922F933F934F93D9
:1014A0005F936F937F938F939F93AF93BF93EF93CC
:1014B000FF9381E198E00E940B03FF91EF91BF91B0
:1014C000AF919F918F917F916F915F914F913F91DC
:1014D0002F910F900BBE0F900FBE0F901F9018957D
:1014E0001F920F920FB60F9211240BB60F922F93EB
:1014F0003F934F935F936F937F938F939F93AF939C
:10150000BF93EF93FF938EEA98E00E948903FF91C7
:10151000EF91BF91AF919F918F917F916F915F916B
:101520004F913F912F910F900BBE0F900FBE0F90D8
:101530001F9018951F920F920FB60F9211240BB6A1
:101540000F922F933F934F935F936F937F938F935C
:101550009F93AF93BF93EF93FF938EEA98E00E941F
:101560000B03FF91EF91BF91AF919F918F917F916D
:101570006F915F914F913F912F910F900BBE0F9004
:101580000FBE0F901F9018951F920F920FB60F92DB
:1015900011240F900FBE0F901F9018951F920F925D
:1015A0000FB60F9211240F900FBE0F901F90189539
:1015B0001F920F920FB60F9211240F900FBE0F9033
:1015C0001F901895CF93DF93CBEFDAE06097CE01B1
:1015D0000A960E94830889E0CB34D807B9F78AE0DD
:1015E00092E00E9483088AE192E00E9483088AE2E6
:1015F00092E00E9483088AE392E00E9483088AE4D2
:1016000092E00E9483088AE592E00E9483088AE6BD
:1016100092E00E9483088AE792E00E9483088AE8A9
:1016200092E00E9483088AE992E00E9483088AEA95
:1016300092E00E9483088AEB92E00E9483088AEC81
:1016400092E00E9483088AED92E00E9483088AEE6D
:1016500092E00E9483088AEF92E00E9483088AE069
:1016600093E00E9483088AE193E00E9483088AE263
:1016700093E00E9483088AE393E00E9483088AE44F
:1016800093E00E9483088AE593E00E9483088AE63B
:1016900093E00E9483088AE793E00E9483088AE827
:1016A00093E00E9483088AE993E00E9483088AEA13
:1016B00093E00E9483088CEC93E09093FC0A809363
:1016C000FB0A2091070B46EF420F443068F08EEC86
:1016D000820F843048F082EC820FEDE6F0E0883033
:1016E00028F0DF91CF910895EBE6F0E03081822F72
:1016F0008650990B443080F087EF2233A9F08BEFAE
:10170000233391F08DEF243379F082EC820F88300F
:10171000D0F4822F8E53990BBC0181E090E001C080
:10172000880F6A95EAF780958323443070F09EEC29
:10173000920F943050F02E53F0E0E0E0283038F46F
:10174000EDE6F0E004C08EEFEFCFEBE6F0E0808353
:10175000C8CF0F931F93CF93DF931092DA061092A6
:10176000D90688EE93E0A0E0B0E08093DB0690938A
:10177000DC06A093DD06B093DE062AEB33E030935F
:10178000D8062093D70645E351E05093E4064093F2
:10179000E30644E351E05093E6064093E50640E358
:1017A00051E05093E8064093E70641E351E050933F
:1017B000EA064093E90642E351E05093EC06409379
:1017C000EB0646E351E05093EE064093ED0610928F
:1017D000F0061092F1061092F2061092F3061092A3
:1017E0007707109276078093780790937907A093F4
:1017F0007A07B0937B07309375072093740745ED04
:1018000050E0509381074093800744ED50E050939F
:1018100083074093820740ED50E050938507409343
:10182000840741ED50E0509387074093860742EDCF
:1018300050E0509389074093880746ED50E050935D
:101840008B0740938A0710928D0710928E07109293
:101850008F0710929007109214081092130880932B
:10186000150890931608A0931708B09318083093A2
:101870001208209311084DEC50E050931E0840933D
:101880001D084CEC50E05093200840931F0848EC92
:1018900050E0509322084093210849EC50E05093C7
:1018A0002408409323084AEC50E0509326084093C4
:1018B00025084EEC50E050932808409327081092DA
:1018C0002A0810922B0810922C0810922D081092C2
:1018D000B1081092B0088093B2089093B308A09317
:1018E000B408B093B5083093AF082093AE0825EC48
:1018F00030E03093BB082093BA0824EC30E03093FA
:10190000BD082093BC0820EC30E03093BF08209342
:10191000BE0821EC30E03093C1082093C00822ECCF
:1019200030E03093C3082093C20826EC30E03093B7
:10193000C5082093C4081092C7081092C8081092D6
:10194000C9081092CA081092FE0A1092FD0A8093EC
:10195000FF0A9093000BA093010BB093020B8CEC49
:1019600093E09093FC0A8093FB0A10920F0B109265
:101970000E0B1092110B1092100B1092130B109271
:10198000120B1092150B1092140B8091160B8E7F78
:101990008D7F8093160B0FE312E0F8012491C9EFBD
:1019A000D1E0FE018491882399F090E0880F991F7F
:1019B000FC01EC53FE4FA591B491FC01E252FE4FA5
:1019C000859194918FB7F8949C91292B2C938FBF7C
:1019D00081E00E940002F801049100930B0BFE01CC
:1019E000C491EC2FF0E0EE0FFF1FE252FE4F859105
:1019F000949190930D0B80930C0B0EE312E0F80181
:101A00002491C8EFD1E0FE0184918823C9F090E0D1
:101A1000880F991FFC01EC53FE4FA591B491FC0176
:101A2000E252FE4F459154913FB7F8949C91822F1A
:101A3000809598239C93FA019081892380833FBFEE
:101A40008091160B81FD03C080E00E94000210927D
:101A5000070BF80104910093080BFE01C491EC2FD1
:101A6000F0E0EE0FFF1FE655FE4F859194919093A5
:101A70000A0B8093090B6DED73E08AEA93E00E94F4
:101A8000EE0861EF73E08AE993E00E94EE086CEFE4
:101A900073E08AE893E00E94EE086DE074E08AE764
:101AA00093E00E94EE086FE174E08AE693E00E9402
:101AB000EE0864E374E08AE593E00E94EE0860E4D7
:101AC00074E08AE493E00E94EE0862E574E08AE341
:101AD00093E00E94EE0865E674E08AE293E00E94DB
:101AE000EE086EE674E08AE193E00E94EE086AE791
:101AF00074E08AE093E00E94EE0868E874E08AEF00
:101B000092E00E94EE0867E974E08AEE92E00E949B
:101B1000EE0863EA74E08AED92E00E94EE086EEA55
:101B200074E08AEC92E00E94EE0865EC74E08AEBC7
:101B300092E00E94EE086CED74E08AEA92E00E9466
:101B4000EE086BEE74E08AE992E00E94EE086BE02A
:101B500075E08AE892E00E94EE086CE275E08AE7A0
:101B600092E00E94EE086DE375E08AE692E00E9442
:101B7000EE086CE575E08AE592E00E94EE0866E604
:101B800075E08AE492E00E94EE0861E775E08AE37E
:101B900092E00E94EE0863E875E08AE292E00E941B
:101BA000EE0863EA75E08AE192E00E94EE086EEAD0
:101BB00075E08AE092E00E94EE0860E973E08BE451
:101BC00099E00E948B0860E873E08BE599E00E9441
:101BD0008B0860E773E08BE699E00E948B0860E376
:101BE00072E08BE799E00E948B0860E072E08BE87E
:101BF00099E00E948B0860E373E08BE999E00E9412
:101C00008B0860E073E08BEA99E00E948B0860E843
:101C100072E08BEB99E00E948B0860E972E08BEC3C
:101C200099E00E948B0860E473E08BED99E00E94DC
:101C30008B0860E573E08BEE99E00E948B0860E50D
:101C400072E08BEF99E00E948B0860E472E08BE019
:101C50009AE00E948B0860E772E08BE19AE00E94B4
:101C60008B0860EF72E08BE29AE00E948B0860EDD7
:101C700072E08BE39AE00E948B0860EE72E08BE4E6
:101C80009AE00E948B0860EC72E08BE59AE00E947B
:101C90008B0860E172E08BE69AE00E948B0860EBB3
:101CA00072E08BE79AE00E948B0860EA72E08BE8B2
:101CB0009AE00E948B0860E673E08BE99AE00E944C
:101CC0008B0860EA73E08BEA9AE00E948B0860E17F
:101CD00073E08BEB9AE00E948B0860E273E08BEC80
:101CE0009AE00E948B0860E672E08BED9AE00E9419
:101CF0008B0860E272E08BEE9AE0DF91CF911F914A
:101D00000F910C948B08789484B5826084BD84B55F
:101D1000816084BD85B5826085BD85B5816085BDE6
:101D200080916E00816080936E001092810080919E
:101D30008100826080938100809181008160809326
:101D40008100809180008160809380008091B1004B
:101D500084608093B1008091B00081608093B00076
:101D600080919100826080939100809191008160C8
:101D70008093910080919000816080939000809189
:101D8000A10082608093A1008091A1008160809376
:101D9000A1008091A00081608093A000809121012A
:101DA00082608093210180912101816080932101D3
:101DB0008091200181608093200180917A0084606D
:101DC00080937A0080917A00826080937A0080917B
:101DD0007A00816080937A0080917A008068809395
:101DE0007A001092C10060ED77E080E090E00E9400
:101DF000AC0240E052EC61E070E08EEA98E00E94B4
:101E000077018AEB95E00E944D0840E052EC61E0DA
:101E100070E087ED96E00E94770183E090E0909378
:101E2000D0068093CF060BEF1AE0ABE4EA2EA9E0D0
:101E3000FA2EB7E0AB2EB12CC9E0CC2ED12CCFEFCF
:101E4000D7E09D2ED9E0F70140815181B0923A064A
:101E5000A092390650933C0640933B06D0923E0632
:101E6000C0923D069A01FEE02F272E7F3327309344
:101E7000420620934106CA0161EF862790958E7F26
:101E800099279093440680934306C0934506C093D8
:101E900046069092470640934806D0934906209301
:101EA0004A0680934B0667E070E085E496E00E9466
:101EB000680480E1E80EF11C0E151F0521F664EFA1
:101EC00071E080E090E00E94AC021092D206109285
:101ED000D1061092400610923F0664E670E080E062
:101EE00090E00E94AC028BE090E090933A068093E1
:101EF00039063EEFC32ED12CD0923C06C0923B0651
:101F000003E010E010933E0600933D0680E38093CB
:101F10007F0682E0809380061092810610928206EE
:101F200084E090E09093400680933F0664E070E088
:101F30008FE796E00E94D701909342068093410676
:101F40009C01209530952E7F3327309344062093B3
:101F50004306C0934506C0934606609139067091CA
:101F60003A066093470690913B06909348069091FD
:101F70003D069093490680934A0620934B06809134
:101F80007F0680934C068091800680934D06809159
:101F9000810680934E068091820680934F0685E4E9
:101FA00096E00E9468046AE070E080E090E00E94A1
:101FB000AC024AE0A42EB12CB0923A06A0923906A7
:101FC000D0923C06C0923B0610933E0600933D061D
:101FD00054E3952E90927F06D1E0D0938006D09363
:101FE00081061093400600933F0663E070E08FE7A0
:101FF00096E00E94D70190934206809341069C018F
:10200000209530952E7F3327309344062093430646
:10201000C0934506C09346066091390670913A0612
:102020006093470690913B069093480690913D0639
:102030009093490680934A0620934B0680917F0631
:1020400080934C068091800680934D068091810696
:1020500080934E0685E496E00E9468046AE070E092
:1020600080E090E00E94AC02B0923A06A09239065D
:10207000D0923C06C0923B0610933E0600933D066C
:1020800090927F06D093800680E68093810610931D
:10209000400600933F0663E070E08FE796E00E9401
:1020A000D70190934206809341069C01209530957C
:1020B0002E7F33273093440620934306C093450672
:1020C000C09346066091390670913A0660934706C0
:1020D00090913B069093480690913D069093490657
:1020E00080934A0620934B0680917F0680934C068E
:1020F0008091800680934D068091810680934E06E4
:1021000085E496E00E9468046AE070E080E090E078
:102110000E94AC020E940A0562E0462E76E0272E5D
:10212000312CEAE06E2E712CF3E0AF2EB12C0E9420
:102130000A05CBE4D9E010E000E055245A948884E5
:10214000998488819981E9E0F0E0F0933A06E09380
:10215000390690933C0680933B0624E030E03093B0
:102160003E0620933D063AE330937F064092800678
:1021700082E090E09093400680933F0662E070E03A
:102180008FE796E00E94D701909342068093410624
:102190009C01209530952E7F332730934406209361
:1021A000430650924506509246066091390670915A
:1021B0003A066093470690913B06909348069091AB
:1021C0003D069093490680934A0620934B068091E2
:1021D0007F0680934C068091800680934D0685E4AF
:1021E00096E00E94680461E070E080E090E00E9468
:1021F000AC028DE090E00E9492058091470690E04D
:1022000090933A06809339068091480690E0909327
:102210003C0680933B068091490690E090933E06F1
:1022200080933D0680914C0680937F0680914D06F9
:102230008093800680914E068093810680914F06A0
:102240008093820680915006809383068091510688
:10225000809384063092400620923F0666E070E04C
:102260008FE796E00E94D701909342068093410643
:102270009C01209530952E7F332730934406209380
:10228000430640914A064817190609F0D0C08091CC
:102290004B068217130609F0CAC023E030E0811410
:1022A000910411F027E030E080914F068223C09026
:1022B0004E06D82E892809F0BEC088248394912C1C
:1022C00080EC95E00E94D00768817981072E000C90
:1022D000880B990B0E94210887EC95E00E94D0079B
:1022E000C601B4010E941A137250072E000C880B0D
:1022F000990B0E94211226E636E646EA5EE30E942A
:102300005C120E946C13072E000C880B990B0E9424
:10231000210880ED95E00E94D007888199810E9474
:10232000CE06682F70E090E080E04AE00E94DD0772
:102330008AED93E00E94D0078881998170923A06D5
:102340006092390690933C0680933B06B0923E061D
:10235000A0923D0695E390937F0681E080938006EE
:1023600040928106B0924006A0923F0663E070E082
:102370008FE796E00E94D701909342068093410632
:102380009C01209530952E7F33273093440620936F
:102390004306509245065092460660913906709168
:1023A0003A066093470690913B06909348069091B9
:1023B0003D069093490680934A0620934B068091F0
:1023C0007F0680934C068091800680934D06809115
:1023D000810680934E0685E496E00E946804888119
:1023E00099810E94CE06811102C00F5F1F4F609637
:1023F000EC16FD0609F0A3CE88ED95E00E94D0070B
:10240000B801110F880B990B0E9421088FED95E000
:102410000E944D0888EE95E00E944D0868EE73E03A
:1024200080E090E00E94AC020E94180480CECC2490
:10243000CA94DC2C3FCF82E0882E912C41CFE894C7
:1024400009C097FB3EF490958095709561957F4FFC
:102450008F4F9F4F9923A9F0F92F96E9BB279395AA
:10246000F695879577956795B795F111F8CFFAF4BA
:10247000BB0F11F460FF1BC06F5F7F4F8F4F9F4FEB
:1024800016C0882311F096E911C0772321F09EE849
:10249000872F762F05C0662371F096E8862F70E0AF
:1024A00060E02AF09A95660F771F881FDAF7880F89
:1024B0009695879597F908950E946F120C94E012F3
:1024C0000E94D21238F00E94D91220F0952311F008
:1024D0000C94C9120C94CF1211240C9414130E9462
:1024E000F11270F3959FC1F3950F50E0551F629F55
:1024F000F001729FBB27F00DB11D639FAA27F00D5D
:10250000B11DAA1F649F6627B00DA11D661F829F83
:102510002227B00DA11D621F739FB00DA11D621F68
:10252000839FA00D611D221F749F3327A00D611D85
:10253000231F849F600D211D822F762F6A2F112467
:102540009F5750409AF0F1F088234AF0EE0FFF1F9A
:10255000BB1F661F771F881F91505040A9F79E3FF1
:10256000510580F00C94C9120C9414135F3FE4F3EE
:10257000983ED4F3869577956795B795F795E79547
:102580009F5FC1F7FE2B880F911D9695879597F950
:10259000089597F99F6780E870E060E008959FEFE5
:1025A00080EC089500240A941616170618060906EA
:1025B000089500240A9412161306140605060895B9
:1025C000092E0394000C11F4882352F0BB0F40F441
:1025D000BF2B11F460FF04C06F5F7F4F8F4F9F4F81
:1025E000089557FD9058440F551F59F05F3F71F003
:1025F0004795880F97FB991F61F09F3F79F087956A
:102600000895121613061406551FF2CF4695F1DFF2
:1026100008C0161617061806991FF1CF8695710582
:10262000610508940895E894BB2766277727CB01B6
:1026300097F9089597FB072E16F4009407D077FDBD
:1026400009D00E94581307FC05D03EF4909581955F
:102650009F4F0895709561957F4F0895A1E21A2EBE
:10266000AA1BBB1BFD010DC0AA1FBB1FEE1FFF1F36
:10267000A217B307E407F50720F0A21BB30BE40B86
:10268000F50B661F771F881F991F1A9469F76095CD
:102690007095809590959B01AC01BD01CF01089587
:1026A000EE0FFF1F881F8BBF0790F691E02D199446
:1026B000AA1BBB1B51E107C0AA1FBB1FA617B70768
:1026C00010F0A61BB70B881F991F5A95A9F7809584
:1026D0009095BC01CD0108950E9473136894B111C7
:1026E0000C94141308950E94F91288F09F5798F0E3
:1026F000B92F9927B751B0F0E1F0660F771F881F07
:10270000991F1AF0BA95C9F714C0B13091F00E9420
:102710001313B1E008950C941313672F782F8827B3
:10272000B85F39F0B93FCCF3869577956795B39547
:10273000D9F73EF490958095709561957F4F8F4FB6
:102740009F4F08950F931F93CF93DF93823091058E
:1027500010F482E090E0E091190BF0911A0B30E058
:1027600020E0B0E0A0E0309799F42115310509F49C
:102770004AC0281B390B24303105D8F58A819B814A
:102780006115710589F1FB0193838283FE0111C0FC
:10279000408151810281138148175907E0F04817A1
:1027A000590799F4109761F012960C9312971396AB
:1027B0001C933296CF01DF91CF911F910F91089515
:1027C0000093190B10931A0BF4CF2115310551F01A
:1027D0004217530738F0A901DB019A01BD01DF015F
:1027E000F801C1CFEF01F9CF90931A0B8093190B29
:1027F000CDCFFE01E20FF31F819391932250310957
:1028000039832883D7CF2091170B3091180B232BB6
:1028100041F42091B2033091B3033093180B20930D
:10282000170B2091B0033091B1032115310541F40C
:102830002DB73EB74091B4035091B503241B350B1F
:10284000E091170BF091180BE217F307A0F42E1B81
:102850003F0B2817390778F0AC014E5F5F4F241704
:10286000350748F04E0F5F1F5093180B4093170B1E
:10287000819391939FCFF0E0E0E09CCFCF93DF93E3
:102880000097E9F0FC01329713821282A091190B94
:10289000B0911A0BED0130E020E01097A1F42081F7
:1028A0003181820F931F2091170B3091180B28173D
:1028B000390709F061C0F093180BE093170BDF9113
:1028C000CF910895EA01CE17DF07E8F54A815B81D1
:1028D0009E0141155105B1F7E901FB83EA83499156
:1028E0005991C40FD51FEC17FD0761F480819181C8
:1028F0000296840F951FE9019983888382819381D1
:102900009B838A83F0E0E0E012968D919C9113976F
:102910000097B9F52D913C911197CD010296820F48
:10292000931F2091170B3091180B2817390739F690
:10293000309751F510921A0B1092190BB093180B97
:10294000A093170BBCCFD383C28340815181840FE6
:10295000951FC817D90761F44E5F5F4F8881998131
:10296000480F591F518340838A819B8193838283BF
:102970002115310509F0B0CFF0931A0BE093190B34
:102980009ECFFD01DC01C0CF13821282D7CF4F92C0
:102990005F926F927F928F929F92AF92BF92CF92EF
:1029A000DF92EF92FF920F931F93CF93DF938C01EF
:1029B000009799F4CB01DF91CF911F910F91FF9078
:1029C000EF90DF90CF90BF90AF909F908F907F90CF
:1029D0006F905F904F900C94A213FC01E60FF71FCD
:1029E0009C0122503109E217F30708F4AEC0D90167
:1029F000CD91DC911197C617D70720F1C530D105CD
:102A000078F0CE0104978617970750F0C61BD70BB6
:102A10002297C193D1936D937C93CF010E943E1472
:102A2000C801DF91CF911F910F91FF90EF90DF9040
:102A3000CF90BF90AF909F908F907F906F905F905E
:102A40004F9008955B01AC1ABD0A4C018C0E9D1E7F
:102A5000A091190BB0911A0B512C412CF12CE12CA7
:102A6000109731F58091170B9091180B88159905E7
:102A700009F05CC04616570608F058C08091B003B4
:102A80009091B103009741F48DB79EB74091B40384
:102A90005091B503841B950BE817F90708F055C052
:102AA000F093180BE093170BF90171836083B8CF93
:102AB0008D919C91119712966C90129713967C9021
:102AC0001397A815B90559F56C0142E0C40ED11C45
:102AD000CA14DB0420F1AC014A195B09DA01129631
:102AE000159780F06282738251834083D9016D9380
:102AF0007C93E114F10471F0D7011396FC93EE93EB
:102B000012978ECF22968C0F9D1FF901918380839F
:102B1000F301EFCFF0931A0BE093190B81CF481616
:102B2000590608F42C017D01D3019ACFCB010E94F4
:102B3000A2137C01009749F0AE01B8010E94A815CC
:102B4000C8010E943E1487016BCF10E000E068CFFF
:102B5000FB01DC0102C001900D9241505040D8F7BA
:102B60000895FB01DC0101900D920020E1F708952A
:102B700011E0C3E4D1E000E006C0802FFE010E9416
:102B800050132196011DC434D10780E00807A9F72E
:042B9000F894FFCFE7
:102B94000500D8FF2800000000000000000000002D
:102BA4001400F6FF78000F00000000000000000091
:102BB4001F0060FF6E000000010000000000000024
:102BC400040060FFA000930000000000000000006B
:102BD4000D00E7FF32000E000000000000000000BE
:102BE4000C007EFF0000D8FF000000000000000081
:102BF4001E007EFFA0001E00010000000000000077
:102C04000E001400A000F6FF000000000000000009
:102C14000800C4FFFBFFD3FF000000000000000019
:102C24000900ECFF23000400000000000000000085
:102C34001600A6FF28001900010000000000000093
:102C4400150060FF6E006400010000000000000039
:102C5400130060FF7800A6FF0000000000000000E1
:102C6400110065FF1400C4FF000000000000000014
:102C7400120065FFA00090FF0000000000000000AB
:102C84000F0060FF5A002B0001000000000000004C
:102C9400070060FFA000CEFF01000000000000005C
:102CA4001B00ECFFA0005A00000000000000000020
:102CB4001C0023006E005A00000000000000000009
:102CC4000600E2FF50000F000100000000000000B9
:102CD4000A0060FFA00014000000000000000000D3
:102CE4000B00BAFF8200D8FF0100000000000000C2
:102CF400190079FF2300ECFF000000000000000031
:102D0400030060FFA0002400010000000000000098
:102D1400020060FF64000B000000000000000000DF
:102D2400010079FFA00083FF010000000000000003
:102D34001A00D8FF82001400000000000000000008
:102D440000001B0B800000000000AB03DE02240324
:102D5400F803550333034703000000005C07DE0259
:102D640059075E046305760549040D0A004C65663F
:102D7400745F57726973745F4162647563746F72D0
:102D8400004C6566745F456C626F77004C656674D1
:102D94005F41726D5F526F7461746F72004C65664F
:102DA400745F41726D5F4162647563746F72005247
:102DB400696768745F57726973745F4162647563AD
:102DC400746F720052696768745F456C626F770054
:102DD40052696768745F41726D5F526F7461746F9A
:102DE400720052696768745F41726D5F4162647515
:102DF40063746F7200546F705F4E65636B00426F53
:102E040074746F6D5F4E65636B004C6566745F53DD
:102E1400686F756C6465720052696768745F5368A3
:102E24006F756C6465720046726F6E745F4368659B
:102E34007374004261636B5F43686573740048692F
:102E440070735F526F746174655F55707065725F03
:102E5400426F647900486970735F4C65616E5F53BB
:102E64006964655F546F5F53696465004869707392
:102E74005F42656E645F4F766572004C6566745F91
:102E84004C65675F4162647563746F725F46726F0D
:102E94006E745F546F5F4261636B0052696768745C
:102EA4005F4C65675F4162647563746F725F4672FD
:102EB4006F6E745F546F5F4261636B004C65667440
:102EC4005F4C65675F526F7461746F72004C656626
:102ED400745F4C65675F4162647563746F725F53BE
:102EE4006964655F546F5F53696465004C6566741B
:102EF4005F4B6E6565004C6566745F416E6B6C6517
:102F04000052696768745F4C65675F526F746174DF
:102F14006F720052696768745F4C65675F416264F1
:102F24007563746F725F536964655F546F5F53694F
:102F340064650052696768745F4B6E656500526929
:102F44006768745F416E6B6C6500426567696E000B
:102F5400536572766F200020416E676C653A2000DD
:102F640020537461743A2000466F756E642000200B
:0E2F74006D6F746F72732E004379636C65008D
:00000001FF
